{
	"contracts/tiyin.sol": {
		"Token": {
			"abi": [
				{
					"anonymous": false,
					"inputs": [
						{
							"indexed": true,
							"internalType": "address",
							"name": "owner",
							"type": "address"
						},
						{
							"indexed": true,
							"internalType": "address",
							"name": "spender",
							"type": "address"
						},
						{
							"indexed": false,
							"internalType": "uint256",
							"name": "amount",
							"type": "uint256"
						}
					],
					"name": "Approve",
					"type": "event"
				},
				{
					"anonymous": false,
					"inputs": [
						{
							"indexed": true,
							"internalType": "address",
							"name": "from",
							"type": "address"
						},
						{
							"indexed": true,
							"internalType": "address",
							"name": "to",
							"type": "address"
						},
						{
							"indexed": false,
							"internalType": "uint256",
							"name": "amount",
							"type": "uint256"
						}
					],
					"name": "Transfer",
					"type": "event"
				},
				{
					"inputs": [],
					"name": "allSupply",
					"outputs": [
						{
							"internalType": "uint256",
							"name": "",
							"type": "uint256"
						}
					],
					"stateMutability": "view",
					"type": "function"
				},
				{
					"inputs": [
						{
							"internalType": "address",
							"name": "",
							"type": "address"
						},
						{
							"internalType": "address",
							"name": "",
							"type": "address"
						}
					],
					"name": "allow",
					"outputs": [
						{
							"internalType": "uint256",
							"name": "",
							"type": "uint256"
						}
					],
					"stateMutability": "view",
					"type": "function"
				},
				{
					"inputs": [
						{
							"internalType": "address",
							"name": "ownerr",
							"type": "address"
						},
						{
							"internalType": "address",
							"name": "spender",
							"type": "address"
						}
					],
					"name": "allowance",
					"outputs": [
						{
							"internalType": "uint256",
							"name": "",
							"type": "uint256"
						}
					],
					"stateMutability": "view",
					"type": "function"
				},
				{
					"inputs": [
						{
							"internalType": "address",
							"name": "spender",
							"type": "address"
						},
						{
							"internalType": "uint256",
							"name": "amount",
							"type": "uint256"
						}
					],
					"name": "approve",
					"outputs": [
						{
							"internalType": "bool",
							"name": "",
							"type": "bool"
						}
					],
					"stateMutability": "nonpayable",
					"type": "function"
				},
				{
					"inputs": [
						{
							"internalType": "address",
							"name": "",
							"type": "address"
						}
					],
					"name": "balance",
					"outputs": [
						{
							"internalType": "uint256",
							"name": "",
							"type": "uint256"
						}
					],
					"stateMutability": "view",
					"type": "function"
				},
				{
					"inputs": [
						{
							"internalType": "address",
							"name": "account",
							"type": "address"
						}
					],
					"name": "balanceOf",
					"outputs": [
						{
							"internalType": "uint256",
							"name": "",
							"type": "uint256"
						}
					],
					"stateMutability": "view",
					"type": "function"
				},
				{
					"inputs": [
						{
							"internalType": "address",
							"name": "_account",
							"type": "address"
						}
					],
					"name": "blacklist",
					"outputs": [],
					"stateMutability": "nonpayable",
					"type": "function"
				},
				{
					"inputs": [
						{
							"internalType": "address",
							"name": "",
							"type": "address"
						}
					],
					"name": "blacklisted",
					"outputs": [
						{
							"internalType": "bool",
							"name": "",
							"type": "bool"
						}
					],
					"stateMutability": "view",
					"type": "function"
				},
				{
					"inputs": [],
					"name": "decimal",
					"outputs": [
						{
							"internalType": "uint8",
							"name": "",
							"type": "uint8"
						}
					],
					"stateMutability": "view",
					"type": "function"
				},
				{
					"inputs": [],
					"name": "mint",
					"outputs": [],
					"stateMutability": "nonpayable",
					"type": "function"
				},
				{
					"inputs": [],
					"name": "name",
					"outputs": [
						{
							"internalType": "string",
							"name": "",
							"type": "string"
						}
					],
					"stateMutability": "view",
					"type": "function"
				},
				{
					"inputs": [],
					"name": "owner",
					"outputs": [
						{
							"internalType": "address",
							"name": "",
							"type": "address"
						}
					],
					"stateMutability": "view",
					"type": "function"
				},
				{
					"inputs": [],
					"name": "symbol",
					"outputs": [
						{
							"internalType": "string",
							"name": "",
							"type": "string"
						}
					],
					"stateMutability": "view",
					"type": "function"
				},
				{
					"inputs": [],
					"name": "totalSupply",
					"outputs": [
						{
							"internalType": "uint256",
							"name": "",
							"type": "uint256"
						}
					],
					"stateMutability": "view",
					"type": "function"
				},
				{
					"inputs": [
						{
							"internalType": "address",
							"name": "recipient",
							"type": "address"
						},
						{
							"internalType": "uint256",
							"name": "amount",
							"type": "uint256"
						}
					],
					"name": "transfer",
					"outputs": [
						{
							"internalType": "bool",
							"name": "",
							"type": "bool"
						}
					],
					"stateMutability": "nonpayable",
					"type": "function"
				},
				{
					"inputs": [
						{
							"internalType": "address",
							"name": "sender",
							"type": "address"
						},
						{
							"internalType": "address",
							"name": "recipient",
							"type": "address"
						},
						{
							"internalType": "uint256",
							"name": "amount",
							"type": "uint256"
						}
					],
					"name": "transferFrom",
					"outputs": [
						{
							"internalType": "bool",
							"name": "",
							"type": "bool"
						}
					],
					"stateMutability": "nonpayable",
					"type": "function"
				},
				{
					"inputs": [
						{
							"internalType": "address",
							"name": "_account",
							"type": "address"
						}
					],
					"name": "unBlacklist",
					"outputs": [],
					"stateMutability": "nonpayable",
					"type": "function"
				}
			],
			"devdoc": {
				"kind": "dev",
				"methods": {},
				"version": 1
			},
			"evm": {
				"assembly": "    /* \"contracts/tiyin.sol\":56:2229  contract Token {... */\n  mstore(0x40, 0x80)\n    /* \"contracts/tiyin.sol\":101:111  1000000e18 */\n  0xd3c21bcecceda1000000\n    /* \"contracts/tiyin.sol\":77:111  uint public allSupply = 1000000e18 */\n  0x00\n  sstore\n    /* \"contracts/tiyin.sol\":141:151  msg.sender */\n  caller\n    /* \"contracts/tiyin.sol\":118:151  address public owner = msg.sender */\n  0x01\n  exp(0x0100, 0x00)\n  dup2\n  sload\n  dup2\n  0xffffffffffffffffffffffffffffffffffffffff\n  mul\n  not\n  and\n  swap1\n  dup4\n  0xffffffffffffffffffffffffffffffffffffffff\n  and\n  mul\n  or\n  swap1\n  sstore\n  pop\n    /* \"contracts/tiyin.sol\":314:342  string public name = \"Tyiyn\" */\n  mload(0x40)\n  dup1\n  0x40\n  add\n  0x40\n  mstore\n  dup1\n  0x05\n  dup2\n  mstore\n  0x20\n  add\n  0x547969796e000000000000000000000000000000000000000000000000000000\n  dup2\n  mstore\n  pop\n  0x05\n  swap1\n  dup1\n  mload\n  swap1\n  0x20\n  add\n  swap1\n  tag_1\n  swap3\n  swap2\n  swap1\n  tag_2\n  jump\t// in\ntag_1:\n  pop\n    /* \"contracts/tiyin.sol\":348:376  string public symbol = \"TYI\" */\n  mload(0x40)\n  dup1\n  0x40\n  add\n  0x40\n  mstore\n  dup1\n  0x03\n  dup2\n  mstore\n  0x20\n  add\n  0x5459490000000000000000000000000000000000000000000000000000000000\n  dup2\n  mstore\n  pop\n  0x06\n  swap1\n  dup1\n  mload\n  swap1\n  0x20\n  add\n  swap1\n  tag_3\n  swap3\n  swap2\n  swap1\n  tag_2\n  jump\t// in\ntag_3:\n  pop\n    /* \"contracts/tiyin.sol\":405:407  18 */\n  0x12\n    /* \"contracts/tiyin.sol\":382:407  uint8 public decimal = 18 */\n  0x07\n  exp(0x0100, 0x00)\n  dup2\n  sload\n  dup2\n  0xff\n  mul\n  not\n  and\n  swap1\n  dup4\n  0xff\n  and\n  mul\n  or\n  swap1\n  sstore\n  pop\n    /* \"contracts/tiyin.sol\":56:2229  contract Token {... */\n  callvalue\n  dup1\n  iszero\n  tag_4\n  jumpi\n  0x00\n  dup1\n  revert\ntag_4:\n  pop\n  jump(tag_5)\ntag_2:\n  dup3\n  dup1\n  sload\n  tag_6\n  swap1\n  tag_7\n  jump\t// in\ntag_6:\n  swap1\n  0x00\n  mstore\n  keccak256(0x00, 0x20)\n  swap1\n  0x1f\n  add\n  0x20\n  swap1\n  div\n  dup2\n  add\n  swap3\n  dup3\n  tag_9\n  jumpi\n  0x00\n  dup6\n  sstore\n  jump(tag_8)\ntag_9:\n  dup3\n  0x1f\n  lt\n  tag_10\n  jumpi\n  dup1\n  mload\n  not(0xff)\n  and\n  dup4\n  dup1\n  add\n  or\n  dup6\n  sstore\n  jump(tag_8)\ntag_10:\n  dup3\n  dup1\n  add\n  0x01\n  add\n  dup6\n  sstore\n  dup3\n  iszero\n  tag_8\n  jumpi\n  swap2\n  dup3\n  add\ntag_11:\n  dup3\n  dup2\n  gt\n  iszero\n  tag_12\n  jumpi\n  dup3\n  mload\n  dup3\n  sstore\n  swap2\n  0x20\n  add\n  swap2\n  swap1\n  0x01\n  add\n  swap1\n  jump(tag_11)\ntag_12:\ntag_8:\n  pop\n  swap1\n  pop\n  tag_13\n  swap2\n  swap1\n  tag_14\n  jump\t// in\ntag_13:\n  pop\n  swap1\n  jump\t// out\ntag_14:\ntag_15:\n  dup1\n  dup3\n  gt\n  iszero\n  tag_16\n  jumpi\n  0x00\n  dup2\n  0x00\n  swap1\n  sstore\n  pop\n  0x01\n  add\n  jump(tag_15)\ntag_16:\n  pop\n  swap1\n  jump\t// out\n    /* \"#utility.yul\":7:327   */\ntag_7:\n    /* \"#utility.yul\":51:57   */\n  0x00\n    /* \"#utility.yul\":88:89   */\n  0x02\n    /* \"#utility.yul\":82:86   */\n  dup3\n    /* \"#utility.yul\":78:90   */\n  div\n    /* \"#utility.yul\":68:90   */\n  swap1\n  pop\n    /* \"#utility.yul\":135:136   */\n  0x01\n    /* \"#utility.yul\":129:133   */\n  dup3\n    /* \"#utility.yul\":125:137   */\n  and\n    /* \"#utility.yul\":156:174   */\n  dup1\n    /* \"#utility.yul\":146:227   */\n  tag_19\n  jumpi\n    /* \"#utility.yul\":212:216   */\n  0x7f\n    /* \"#utility.yul\":204:210   */\n  dup3\n    /* \"#utility.yul\":200:217   */\n  and\n    /* \"#utility.yul\":190:217   */\n  swap2\n  pop\n    /* \"#utility.yul\":146:227   */\ntag_19:\n    /* \"#utility.yul\":274:276   */\n  0x20\n    /* \"#utility.yul\":266:272   */\n  dup3\n    /* \"#utility.yul\":263:277   */\n  lt\n    /* \"#utility.yul\":243:261   */\n  dup2\n    /* \"#utility.yul\":240:278   */\n  eq\n    /* \"#utility.yul\":237:321   */\n  iszero\n  tag_20\n  jumpi\n    /* \"#utility.yul\":293:311   */\n  tag_21\n  tag_22\n  jump\t// in\ntag_21:\n    /* \"#utility.yul\":237:321   */\ntag_20:\n    /* \"#utility.yul\":58:327   */\n  pop\n    /* \"#utility.yul\":7:327   */\n  swap2\n  swap1\n  pop\n  jump\t// out\n    /* \"#utility.yul\":333:513   */\ntag_22:\n    /* \"#utility.yul\":381:458   */\n  0x4e487b7100000000000000000000000000000000000000000000000000000000\n    /* \"#utility.yul\":378:379   */\n  0x00\n    /* \"#utility.yul\":371:459   */\n  mstore\n    /* \"#utility.yul\":478:482   */\n  0x22\n    /* \"#utility.yul\":475:476   */\n  0x04\n    /* \"#utility.yul\":468:483   */\n  mstore\n    /* \"#utility.yul\":502:506   */\n  0x24\n    /* \"#utility.yul\":499:500   */\n  0x00\n    /* \"#utility.yul\":492:507   */\n  revert\n    /* \"contracts/tiyin.sol\":56:2229  contract Token {... */\ntag_5:\n  dataSize(sub_0)\n  dup1\n  dataOffset(sub_0)\n  0x00\n  codecopy\n  0x00\n  return\nstop\n\nsub_0: assembly {\n        /* \"contracts/tiyin.sol\":56:2229  contract Token {... */\n      mstore(0x40, 0x80)\n      callvalue\n      dup1\n      iszero\n      tag_1\n      jumpi\n      0x00\n      dup1\n      revert\n    tag_1:\n      pop\n      jumpi(tag_2, lt(calldatasize, 0x04))\n      shr(0xe0, calldataload(0x00))\n      dup1\n      0x76809ce3\n      gt\n      tag_20\n      jumpi\n      dup1\n      0xa9059cbb\n      gt\n      tag_21\n      jumpi\n      dup1\n      0xa9059cbb\n      eq\n      tag_15\n      jumpi\n      dup1\n      0xdbac26e9\n      eq\n      tag_16\n      jumpi\n      dup1\n      0xdd62ed3e\n      eq\n      tag_17\n      jumpi\n      dup1\n      0xe3d670d7\n      eq\n      tag_18\n      jumpi\n      dup1\n      0xf9f92be4\n      eq\n      tag_19\n      jumpi\n      jump(tag_2)\n    tag_21:\n      dup1\n      0x76809ce3\n      eq\n      tag_11\n      jumpi\n      dup1\n      0x775ad527\n      eq\n      tag_12\n      jumpi\n      dup1\n      0x8da5cb5b\n      eq\n      tag_13\n      jumpi\n      dup1\n      0x95d89b41\n      eq\n      tag_14\n      jumpi\n      jump(tag_2)\n    tag_20:\n      dup1\n      0x1a895266\n      gt\n      tag_22\n      jumpi\n      dup1\n      0x1a895266\n      eq\n      tag_7\n      jumpi\n      dup1\n      0x23b872dd\n      eq\n      tag_8\n      jumpi\n      dup1\n      0x42320732\n      eq\n      tag_9\n      jumpi\n      dup1\n      0x70a08231\n      eq\n      tag_10\n      jumpi\n      jump(tag_2)\n    tag_22:\n      dup1\n      0x06fdde03\n      eq\n      tag_3\n      jumpi\n      dup1\n      0x095ea7b3\n      eq\n      tag_4\n      jumpi\n      dup1\n      0x1249c58b\n      eq\n      tag_5\n      jumpi\n      dup1\n      0x18160ddd\n      eq\n      tag_6\n      jumpi\n    tag_2:\n      0x00\n      dup1\n      revert\n        /* \"contracts/tiyin.sol\":314:342  string public name = \"Tyiyn\" */\n    tag_3:\n      tag_23\n      tag_24\n      jump\t// in\n    tag_23:\n      mload(0x40)\n      tag_25\n      swap2\n      swap1\n      tag_26\n      jump\t// in\n    tag_25:\n      mload(0x40)\n      dup1\n      swap2\n      sub\n      swap1\n      return\n        /* \"contracts/tiyin.sol\":1586:1779  function approve(address spender, uint amount) external returns(bool){... */\n    tag_4:\n      tag_27\n      0x04\n      dup1\n      calldatasize\n      sub\n      dup2\n      add\n      swap1\n      tag_28\n      swap2\n      swap1\n      tag_29\n      jump\t// in\n    tag_28:\n      tag_30\n      jump\t// in\n    tag_27:\n      mload(0x40)\n      tag_31\n      swap2\n      swap1\n      tag_32\n      jump\t// in\n    tag_31:\n      mload(0x40)\n      dup1\n      swap2\n      sub\n      swap1\n      return\n        /* \"contracts/tiyin.sol\":1456:1580  function mint() public{... */\n    tag_5:\n      tag_33\n      tag_34\n      jump\t// in\n    tag_33:\n      stop\n        /* \"contracts/tiyin.sol\":830:913  function totalSupply() external view returns(uint){... */\n    tag_6:\n      tag_35\n      tag_36\n      jump\t// in\n    tag_35:\n      mload(0x40)\n      tag_37\n      swap2\n      swap1\n      tag_38\n      jump\t// in\n    tag_37:\n      mload(0x40)\n      dup1\n      swap2\n      sub\n      swap1\n      return\n        /* \"contracts/tiyin.sol\":621:824  function unBlacklist(address _account) public{... */\n    tag_7:\n      tag_39\n      0x04\n      dup1\n      calldatasize\n      sub\n      dup2\n      add\n      swap1\n      tag_40\n      swap2\n      swap1\n      tag_41\n      jump\t// in\n    tag_40:\n      tag_42\n      jump\t// in\n    tag_39:\n      stop\n        /* \"contracts/tiyin.sol\":1785:2071  function transferFrom(address sender, address recipient, uint amount) external returns(bool){... */\n    tag_8:\n      tag_43\n      0x04\n      dup1\n      calldatasize\n      sub\n      dup2\n      add\n      swap1\n      tag_44\n      swap2\n      swap1\n      tag_45\n      jump\t// in\n    tag_44:\n      tag_46\n      jump\t// in\n    tag_43:\n      mload(0x40)\n      tag_47\n      swap2\n      swap1\n      tag_32\n      jump\t// in\n    tag_47:\n      mload(0x40)\n      dup1\n      swap2\n      sub\n      swap1\n      return\n        /* \"contracts/tiyin.sol\":77:111  uint public allSupply = 1000000e18 */\n    tag_9:\n      tag_48\n      tag_49\n      jump\t// in\n    tag_48:\n      mload(0x40)\n      tag_50\n      swap2\n      swap1\n      tag_38\n      jump\t// in\n    tag_50:\n      mload(0x40)\n      dup1\n      swap2\n      sub\n      swap1\n      return\n        /* \"contracts/tiyin.sol\":919:1022  function balanceOf(address account) external view returns(uint){... */\n    tag_10:\n      tag_51\n      0x04\n      dup1\n      calldatasize\n      sub\n      dup2\n      add\n      swap1\n      tag_52\n      swap2\n      swap1\n      tag_41\n      jump\t// in\n    tag_52:\n      tag_53\n      jump\t// in\n    tag_51:\n      mload(0x40)\n      tag_54\n      swap2\n      swap1\n      tag_38\n      jump\t// in\n    tag_54:\n      mload(0x40)\n      dup1\n      swap2\n      sub\n      swap1\n      return\n        /* \"contracts/tiyin.sol\":382:407  uint8 public decimal = 18 */\n    tag_11:\n      tag_55\n      tag_56\n      jump\t// in\n    tag_55:\n      mload(0x40)\n      tag_57\n      swap2\n      swap1\n      tag_58\n      jump\t// in\n    tag_57:\n      mload(0x40)\n      dup1\n      swap2\n      sub\n      swap1\n      return\n        /* \"contracts/tiyin.sol\":201:254  mapping(address=>mapping(address=>uint)) public allow */\n    tag_12:\n      tag_59\n      0x04\n      dup1\n      calldatasize\n      sub\n      dup2\n      add\n      swap1\n      tag_60\n      swap2\n      swap1\n      tag_61\n      jump\t// in\n    tag_60:\n      tag_62\n      jump\t// in\n    tag_59:\n      mload(0x40)\n      tag_63\n      swap2\n      swap1\n      tag_38\n      jump\t// in\n    tag_63:\n      mload(0x40)\n      dup1\n      swap2\n      sub\n      swap1\n      return\n        /* \"contracts/tiyin.sol\":118:151  address public owner = msg.sender */\n    tag_13:\n      tag_64\n      tag_65\n      jump\t// in\n    tag_64:\n      mload(0x40)\n      tag_66\n      swap2\n      swap1\n      tag_67\n      jump\t// in\n    tag_66:\n      mload(0x40)\n      dup1\n      swap2\n      sub\n      swap1\n      return\n        /* \"contracts/tiyin.sol\":348:376  string public symbol = \"TYI\" */\n    tag_14:\n      tag_68\n      tag_69\n      jump\t// in\n    tag_68:\n      mload(0x40)\n      tag_70\n      swap2\n      swap1\n      tag_26\n      jump\t// in\n    tag_70:\n      mload(0x40)\n      dup1\n      swap2\n      sub\n      swap1\n      return\n        /* \"contracts/tiyin.sol\":1028:1319  function transfer(address recipient, uint amount) external returns(bool){... */\n    tag_15:\n      tag_71\n      0x04\n      dup1\n      calldatasize\n      sub\n      dup2\n      add\n      swap1\n      tag_72\n      swap2\n      swap1\n      tag_29\n      jump\t// in\n    tag_72:\n      tag_73\n      jump\t// in\n    tag_71:\n      mload(0x40)\n      tag_74\n      swap2\n      swap1\n      tag_32\n      jump\t// in\n    tag_74:\n      mload(0x40)\n      dup1\n      swap2\n      sub\n      swap1\n      return\n        /* \"contracts/tiyin.sol\":260:303  mapping(address => bool) public blacklisted */\n    tag_16:\n      tag_75\n      0x04\n      dup1\n      calldatasize\n      sub\n      dup2\n      add\n      swap1\n      tag_76\n      swap2\n      swap1\n      tag_41\n      jump\t// in\n    tag_76:\n      tag_77\n      jump\t// in\n    tag_75:\n      mload(0x40)\n      tag_78\n      swap2\n      swap1\n      tag_32\n      jump\t// in\n    tag_78:\n      mload(0x40)\n      dup1\n      swap2\n      sub\n      swap1\n      return\n        /* \"contracts/tiyin.sol\":1325:1450  function allowance(address ownerr, address spender) external view returns(uint){... */\n    tag_17:\n      tag_79\n      0x04\n      dup1\n      calldatasize\n      sub\n      dup2\n      add\n      swap1\n      tag_80\n      swap2\n      swap1\n      tag_61\n      jump\t// in\n    tag_80:\n      tag_81\n      jump\t// in\n    tag_79:\n      mload(0x40)\n      tag_82\n      swap2\n      swap1\n      tag_38\n      jump\t// in\n    tag_82:\n      mload(0x40)\n      dup1\n      swap2\n      sub\n      swap1\n      return\n        /* \"contracts/tiyin.sol\":158:195  mapping(address=>uint) public balance */\n    tag_18:\n      tag_83\n      0x04\n      dup1\n      calldatasize\n      sub\n      dup2\n      add\n      swap1\n      tag_84\n      swap2\n      swap1\n      tag_41\n      jump\t// in\n    tag_84:\n      tag_85\n      jump\t// in\n    tag_83:\n      mload(0x40)\n      tag_86\n      swap2\n      swap1\n      tag_38\n      jump\t// in\n    tag_86:\n      mload(0x40)\n      dup1\n      swap2\n      sub\n      swap1\n      return\n        /* \"contracts/tiyin.sol\":414:615  function blacklist(address _account) public{... */\n    tag_19:\n      tag_87\n      0x04\n      dup1\n      calldatasize\n      sub\n      dup2\n      add\n      swap1\n      tag_88\n      swap2\n      swap1\n      tag_41\n      jump\t// in\n    tag_88:\n      tag_89\n      jump\t// in\n    tag_87:\n      stop\n        /* \"contracts/tiyin.sol\":314:342  string public name = \"Tyiyn\" */\n    tag_24:\n      0x05\n      dup1\n      sload\n      tag_90\n      swap1\n      tag_91\n      jump\t// in\n    tag_90:\n      dup1\n      0x1f\n      add\n      0x20\n      dup1\n      swap2\n      div\n      mul\n      0x20\n      add\n      mload(0x40)\n      swap1\n      dup2\n      add\n      0x40\n      mstore\n      dup1\n      swap3\n      swap2\n      swap1\n      dup2\n      dup2\n      mstore\n      0x20\n      add\n      dup3\n      dup1\n      sload\n      tag_92\n      swap1\n      tag_91\n      jump\t// in\n    tag_92:\n      dup1\n      iszero\n      tag_93\n      jumpi\n      dup1\n      0x1f\n      lt\n      tag_94\n      jumpi\n      0x0100\n      dup1\n      dup4\n      sload\n      div\n      mul\n      dup4\n      mstore\n      swap2\n      0x20\n      add\n      swap2\n      jump(tag_93)\n    tag_94:\n      dup3\n      add\n      swap2\n      swap1\n      0x00\n      mstore\n      keccak256(0x00, 0x20)\n      swap1\n    tag_95:\n      dup2\n      sload\n      dup2\n      mstore\n      swap1\n      0x01\n      add\n      swap1\n      0x20\n      add\n      dup1\n      dup4\n      gt\n      tag_95\n      jumpi\n      dup3\n      swap1\n      sub\n      0x1f\n      and\n      dup3\n      add\n      swap2\n    tag_93:\n      pop\n      pop\n      pop\n      pop\n      pop\n      dup2\n      jump\t// out\n        /* \"contracts/tiyin.sol\":1586:1779  function approve(address spender, uint amount) external returns(bool){... */\n    tag_30:\n        /* \"contracts/tiyin.sol\":1650:1654  bool */\n      0x00\n        /* \"contracts/tiyin.sol\":1694:1700  amount */\n      dup2\n        /* \"contracts/tiyin.sol\":1665:1670  allow */\n      0x03\n        /* \"contracts/tiyin.sol\":1665:1682  allow[msg.sender] */\n      0x00\n        /* \"contracts/tiyin.sol\":1671:1681  msg.sender */\n      caller\n        /* \"contracts/tiyin.sol\":1665:1682  allow[msg.sender] */\n      0xffffffffffffffffffffffffffffffffffffffff\n      and\n      0xffffffffffffffffffffffffffffffffffffffff\n      and\n      dup2\n      mstore\n      0x20\n      add\n      swap1\n      dup2\n      mstore\n      0x20\n      add\n      0x00\n      keccak256\n        /* \"contracts/tiyin.sol\":1665:1691  allow[msg.sender][spender] */\n      0x00\n        /* \"contracts/tiyin.sol\":1683:1690  spender */\n      dup6\n        /* \"contracts/tiyin.sol\":1665:1691  allow[msg.sender][spender] */\n      0xffffffffffffffffffffffffffffffffffffffff\n      and\n      0xffffffffffffffffffffffffffffffffffffffff\n      and\n      dup2\n      mstore\n      0x20\n      add\n      swap1\n      dup2\n      mstore\n      0x20\n      add\n      0x00\n      keccak256\n        /* \"contracts/tiyin.sol\":1665:1700  allow[msg.sender][spender] = amount */\n      dup2\n      swap1\n      sstore\n      pop\n        /* \"contracts/tiyin.sol\":1735:1742  spender */\n      dup3\n        /* \"contracts/tiyin.sol\":1715:1751  Approve(msg.sender, spender, amount) */\n      0xffffffffffffffffffffffffffffffffffffffff\n      and\n        /* \"contracts/tiyin.sol\":1723:1733  msg.sender */\n      caller\n        /* \"contracts/tiyin.sol\":1715:1751  Approve(msg.sender, spender, amount) */\n      0xffffffffffffffffffffffffffffffffffffffff\n      and\n      0x6e11fb1b7f119e3f2fa29896ef5fdf8b8a2d0d4df6fe90ba8668e7d8b2ffa25e\n        /* \"contracts/tiyin.sol\":1744:1750  amount */\n      dup5\n        /* \"contracts/tiyin.sol\":1715:1751  Approve(msg.sender, spender, amount) */\n      mload(0x40)\n      tag_97\n      swap2\n      swap1\n      tag_38\n      jump\t// in\n    tag_97:\n      mload(0x40)\n      dup1\n      swap2\n      sub\n      swap1\n      log3\n        /* \"contracts/tiyin.sol\":1768:1772  true */\n      0x01\n        /* \"contracts/tiyin.sol\":1761:1772  return true */\n      swap1\n      pop\n        /* \"contracts/tiyin.sol\":1586:1779  function approve(address spender, uint amount) external returns(bool){... */\n      swap3\n      swap2\n      pop\n      pop\n      jump\t// out\n        /* \"contracts/tiyin.sol\":1456:1580  function mint() public{... */\n    tag_34:\n        /* \"contracts/tiyin.sol\":1505:1515  msg.sender */\n      caller\n        /* \"contracts/tiyin.sol\":1496:1515  owner == msg.sender */\n      0xffffffffffffffffffffffffffffffffffffffff\n      and\n        /* \"contracts/tiyin.sol\":1496:1501  owner */\n      0x01\n      0x00\n      swap1\n      sload\n      swap1\n      0x0100\n      exp\n      swap1\n      div\n      0xffffffffffffffffffffffffffffffffffffffff\n      and\n        /* \"contracts/tiyin.sol\":1496:1515  owner == msg.sender */\n      0xffffffffffffffffffffffffffffffffffffffff\n      and\n      eq\n        /* \"contracts/tiyin.sol\":1488:1535  require(owner == msg.sender, \"should be owner\") */\n      tag_99\n      jumpi\n      mload(0x40)\n      0x08c379a000000000000000000000000000000000000000000000000000000000\n      dup2\n      mstore\n      0x04\n      add\n      tag_100\n      swap1\n      tag_101\n      jump\t// in\n    tag_100:\n      mload(0x40)\n      dup1\n      swap2\n      sub\n      swap1\n      revert\n    tag_99:\n        /* \"contracts/tiyin.sol\":1567:1573  500e18 */\n      0x1b1ae4d6e2ef500000\n        /* \"contracts/tiyin.sol\":1545:1552  balance */\n      0x02\n        /* \"contracts/tiyin.sol\":1545:1564  balance[msg.sender] */\n      0x00\n        /* \"contracts/tiyin.sol\":1553:1563  msg.sender */\n      caller\n        /* \"contracts/tiyin.sol\":1545:1564  balance[msg.sender] */\n      0xffffffffffffffffffffffffffffffffffffffff\n      and\n      0xffffffffffffffffffffffffffffffffffffffff\n      and\n      dup2\n      mstore\n      0x20\n      add\n      swap1\n      dup2\n      mstore\n      0x20\n      add\n      0x00\n      keccak256\n        /* \"contracts/tiyin.sol\":1545:1573  balance[msg.sender] = 500e18 */\n      dup2\n      swap1\n      sstore\n      pop\n        /* \"contracts/tiyin.sol\":1456:1580  function mint() public{... */\n      jump\t// out\n        /* \"contracts/tiyin.sol\":830:913  function totalSupply() external view returns(uint){... */\n    tag_36:\n        /* \"contracts/tiyin.sol\":875:879  uint */\n      0x00\n        /* \"contracts/tiyin.sol\":897:906  allSupply */\n      dup1\n      sload\n        /* \"contracts/tiyin.sol\":890:906  return allSupply */\n      swap1\n      pop\n        /* \"contracts/tiyin.sol\":830:913  function totalSupply() external view returns(uint){... */\n      swap1\n      jump\t// out\n        /* \"contracts/tiyin.sol\":621:824  function unBlacklist(address _account) public{... */\n    tag_42:\n        /* \"contracts/tiyin.sol\":693:703  msg.sender */\n      caller\n        /* \"contracts/tiyin.sol\":684:703  owner == msg.sender */\n      0xffffffffffffffffffffffffffffffffffffffff\n      and\n        /* \"contracts/tiyin.sol\":684:689  owner */\n      0x01\n      0x00\n      swap1\n      sload\n      swap1\n      0x0100\n      exp\n      swap1\n      div\n      0xffffffffffffffffffffffffffffffffffffffff\n      and\n        /* \"contracts/tiyin.sol\":684:703  owner == msg.sender */\n      0xffffffffffffffffffffffffffffffffffffffff\n      and\n      eq\n        /* \"contracts/tiyin.sol\":676:723  require(owner == msg.sender, \"should be owner\") */\n      tag_104\n      jumpi\n      mload(0x40)\n      0x08c379a000000000000000000000000000000000000000000000000000000000\n      dup2\n      mstore\n      0x04\n      add\n      tag_105\n      swap1\n      tag_101\n      jump\t// in\n    tag_105:\n      mload(0x40)\n      dup1\n      swap2\n      sub\n      swap1\n      revert\n    tag_104:\n        /* \"contracts/tiyin.sol\":741:752  blacklisted */\n      0x04\n        /* \"contracts/tiyin.sol\":741:762  blacklisted[_account] */\n      0x00\n        /* \"contracts/tiyin.sol\":753:761  _account */\n      dup3\n        /* \"contracts/tiyin.sol\":741:762  blacklisted[_account] */\n      0xffffffffffffffffffffffffffffffffffffffff\n      and\n      0xffffffffffffffffffffffffffffffffffffffff\n      and\n      dup2\n      mstore\n      0x20\n      add\n      swap1\n      dup2\n      mstore\n      0x20\n      add\n      0x00\n      keccak256\n      0x00\n      swap1\n      sload\n      swap1\n      0x0100\n      exp\n      swap1\n      div\n      0xff\n      and\n        /* \"contracts/tiyin.sol\":733:778  require(blacklisted[_account], \"whitelisted\") */\n      tag_106\n      jumpi\n      mload(0x40)\n      0x08c379a000000000000000000000000000000000000000000000000000000000\n      dup2\n      mstore\n      0x04\n      add\n      tag_107\n      swap1\n      tag_108\n      jump\t// in\n    tag_107:\n      mload(0x40)\n      dup1\n      swap2\n      sub\n      swap1\n      revert\n    tag_106:\n        /* \"contracts/tiyin.sol\":812:817  false */\n      0x00\n        /* \"contracts/tiyin.sol\":788:799  blacklisted */\n      0x04\n        /* \"contracts/tiyin.sol\":788:809  blacklisted[_account] */\n      0x00\n        /* \"contracts/tiyin.sol\":800:808  _account */\n      dup4\n        /* \"contracts/tiyin.sol\":788:809  blacklisted[_account] */\n      0xffffffffffffffffffffffffffffffffffffffff\n      and\n      0xffffffffffffffffffffffffffffffffffffffff\n      and\n      dup2\n      mstore\n      0x20\n      add\n      swap1\n      dup2\n      mstore\n      0x20\n      add\n      0x00\n      keccak256\n      0x00\n        /* \"contracts/tiyin.sol\":788:817  blacklisted[_account] = false */\n      0x0100\n      exp\n      dup2\n      sload\n      dup2\n      0xff\n      mul\n      not\n      and\n      swap1\n      dup4\n      iszero\n      iszero\n      mul\n      or\n      swap1\n      sstore\n      pop\n        /* \"contracts/tiyin.sol\":621:824  function unBlacklist(address _account) public{... */\n      pop\n      jump\t// out\n        /* \"contracts/tiyin.sol\":1785:2071  function transferFrom(address sender, address recipient, uint amount) external returns(bool){... */\n    tag_46:\n        /* \"contracts/tiyin.sol\":1872:1876  bool */\n      0x00\n        /* \"contracts/tiyin.sol\":1915:1921  amount */\n      dup2\n        /* \"contracts/tiyin.sol\":1887:1892  allow */\n      0x03\n        /* \"contracts/tiyin.sol\":1887:1900  allow[sender] */\n      0x00\n        /* \"contracts/tiyin.sol\":1893:1899  sender */\n      dup7\n        /* \"contracts/tiyin.sol\":1887:1900  allow[sender] */\n      0xffffffffffffffffffffffffffffffffffffffff\n      and\n      0xffffffffffffffffffffffffffffffffffffffff\n      and\n      dup2\n      mstore\n      0x20\n      add\n      swap1\n      dup2\n      mstore\n      0x20\n      add\n      0x00\n      keccak256\n        /* \"contracts/tiyin.sol\":1887:1911  allow[sender][recipient] */\n      0x00\n        /* \"contracts/tiyin.sol\":1901:1910  recipient */\n      dup6\n        /* \"contracts/tiyin.sol\":1887:1911  allow[sender][recipient] */\n      0xffffffffffffffffffffffffffffffffffffffff\n      and\n      0xffffffffffffffffffffffffffffffffffffffff\n      and\n      dup2\n      mstore\n      0x20\n      add\n      swap1\n      dup2\n      mstore\n      0x20\n      add\n      0x00\n      keccak256\n      0x00\n        /* \"contracts/tiyin.sol\":1887:1921  allow[sender][recipient] -= amount */\n      dup3\n      dup3\n      sload\n      tag_110\n      swap2\n      swap1\n      tag_111\n      jump\t// in\n    tag_110:\n      swap3\n      pop\n      pop\n      dup2\n      swap1\n      sstore\n      pop\n        /* \"contracts/tiyin.sol\":1950:1956  amount */\n      dup2\n        /* \"contracts/tiyin.sol\":1931:1938  balance */\n      0x02\n        /* \"contracts/tiyin.sol\":1931:1946  balance[sender] */\n      0x00\n        /* \"contracts/tiyin.sol\":1939:1945  sender */\n      dup7\n        /* \"contracts/tiyin.sol\":1931:1946  balance[sender] */\n      0xffffffffffffffffffffffffffffffffffffffff\n      and\n      0xffffffffffffffffffffffffffffffffffffffff\n      and\n      dup2\n      mstore\n      0x20\n      add\n      swap1\n      dup2\n      mstore\n      0x20\n      add\n      0x00\n      keccak256\n      0x00\n        /* \"contracts/tiyin.sol\":1931:1956  balance[sender] -= amount */\n      dup3\n      dup3\n      sload\n      tag_112\n      swap2\n      swap1\n      tag_111\n      jump\t// in\n    tag_112:\n      swap3\n      pop\n      pop\n      dup2\n      swap1\n      sstore\n      pop\n        /* \"contracts/tiyin.sol\":1988:1994  amount */\n      dup2\n        /* \"contracts/tiyin.sol\":1966:1973  balance */\n      0x02\n        /* \"contracts/tiyin.sol\":1966:1984  balance[recipient] */\n      0x00\n        /* \"contracts/tiyin.sol\":1974:1983  recipient */\n      dup6\n        /* \"contracts/tiyin.sol\":1966:1984  balance[recipient] */\n      0xffffffffffffffffffffffffffffffffffffffff\n      and\n      0xffffffffffffffffffffffffffffffffffffffff\n      and\n      dup2\n      mstore\n      0x20\n      add\n      swap1\n      dup2\n      mstore\n      0x20\n      add\n      0x00\n      keccak256\n      0x00\n        /* \"contracts/tiyin.sol\":1966:1994  balance[recipient] += amount */\n      dup3\n      dup3\n      sload\n      tag_113\n      swap2\n      swap1\n      tag_114\n      jump\t// in\n    tag_113:\n      swap3\n      pop\n      pop\n      dup2\n      swap1\n      sstore\n      pop\n        /* \"contracts/tiyin.sol\":2025:2034  recipient */\n      dup3\n        /* \"contracts/tiyin.sol\":2009:2043  Transfer(owner, recipient, amount) */\n      0xffffffffffffffffffffffffffffffffffffffff\n      and\n        /* \"contracts/tiyin.sol\":2018:2023  owner */\n      0x01\n      0x00\n      swap1\n      sload\n      swap1\n      0x0100\n      exp\n      swap1\n      div\n      0xffffffffffffffffffffffffffffffffffffffff\n      and\n        /* \"contracts/tiyin.sol\":2009:2043  Transfer(owner, recipient, amount) */\n      0xffffffffffffffffffffffffffffffffffffffff\n      and\n      0xddf252ad1be2c89b69c2b068fc378daa952ba7f163c4a11628f55a4df523b3ef\n        /* \"contracts/tiyin.sol\":2036:2042  amount */\n      dup5\n        /* \"contracts/tiyin.sol\":2009:2043  Transfer(owner, recipient, amount) */\n      mload(0x40)\n      tag_115\n      swap2\n      swap1\n      tag_38\n      jump\t// in\n    tag_115:\n      mload(0x40)\n      dup1\n      swap2\n      sub\n      swap1\n      log3\n        /* \"contracts/tiyin.sol\":2060:2064  true */\n      0x01\n        /* \"contracts/tiyin.sol\":2053:2064  return true */\n      swap1\n      pop\n        /* \"contracts/tiyin.sol\":1785:2071  function transferFrom(address sender, address recipient, uint amount) external returns(bool){... */\n      swap4\n      swap3\n      pop\n      pop\n      pop\n      jump\t// out\n        /* \"contracts/tiyin.sol\":77:111  uint public allSupply = 1000000e18 */\n    tag_49:\n      sload(0x00)\n      dup2\n      jump\t// out\n        /* \"contracts/tiyin.sol\":919:1022  function balanceOf(address account) external view returns(uint){... */\n    tag_53:\n        /* \"contracts/tiyin.sol\":977:981  uint */\n      0x00\n        /* \"contracts/tiyin.sol\":999:1006  balance */\n      0x02\n        /* \"contracts/tiyin.sol\":999:1015  balance[account] */\n      0x00\n        /* \"contracts/tiyin.sol\":1007:1014  account */\n      dup4\n        /* \"contracts/tiyin.sol\":999:1015  balance[account] */\n      0xffffffffffffffffffffffffffffffffffffffff\n      and\n      0xffffffffffffffffffffffffffffffffffffffff\n      and\n      dup2\n      mstore\n      0x20\n      add\n      swap1\n      dup2\n      mstore\n      0x20\n      add\n      0x00\n      keccak256\n      sload\n        /* \"contracts/tiyin.sol\":992:1015  return balance[account] */\n      swap1\n      pop\n        /* \"contracts/tiyin.sol\":919:1022  function balanceOf(address account) external view returns(uint){... */\n      swap2\n      swap1\n      pop\n      jump\t// out\n        /* \"contracts/tiyin.sol\":382:407  uint8 public decimal = 18 */\n    tag_56:\n      0x07\n      0x00\n      swap1\n      sload\n      swap1\n      0x0100\n      exp\n      swap1\n      div\n      0xff\n      and\n      dup2\n      jump\t// out\n        /* \"contracts/tiyin.sol\":201:254  mapping(address=>mapping(address=>uint)) public allow */\n    tag_62:\n      mstore(0x20, 0x03)\n      dup2\n      0x00\n      mstore\n      mstore(0x20, keccak256(0x00, 0x40))\n      dup1\n      0x00\n      mstore\n      keccak256(0x00, 0x40)\n      0x00\n      swap2\n      pop\n      swap2\n      pop\n      pop\n      sload\n      dup2\n      jump\t// out\n        /* \"contracts/tiyin.sol\":118:151  address public owner = msg.sender */\n    tag_65:\n      0x01\n      0x00\n      swap1\n      sload\n      swap1\n      0x0100\n      exp\n      swap1\n      div\n      0xffffffffffffffffffffffffffffffffffffffff\n      and\n      dup2\n      jump\t// out\n        /* \"contracts/tiyin.sol\":348:376  string public symbol = \"TYI\" */\n    tag_69:\n      0x06\n      dup1\n      sload\n      tag_117\n      swap1\n      tag_91\n      jump\t// in\n    tag_117:\n      dup1\n      0x1f\n      add\n      0x20\n      dup1\n      swap2\n      div\n      mul\n      0x20\n      add\n      mload(0x40)\n      swap1\n      dup2\n      add\n      0x40\n      mstore\n      dup1\n      swap3\n      swap2\n      swap1\n      dup2\n      dup2\n      mstore\n      0x20\n      add\n      dup3\n      dup1\n      sload\n      tag_118\n      swap1\n      tag_91\n      jump\t// in\n    tag_118:\n      dup1\n      iszero\n      tag_119\n      jumpi\n      dup1\n      0x1f\n      lt\n      tag_120\n      jumpi\n      0x0100\n      dup1\n      dup4\n      sload\n      div\n      mul\n      dup4\n      mstore\n      swap2\n      0x20\n      add\n      swap2\n      jump(tag_119)\n    tag_120:\n      dup3\n      add\n      swap2\n      swap1\n      0x00\n      mstore\n      keccak256(0x00, 0x20)\n      swap1\n    tag_121:\n      dup2\n      sload\n      dup2\n      mstore\n      swap1\n      0x01\n      add\n      swap1\n      0x20\n      add\n      dup1\n      dup4\n      gt\n      tag_121\n      jumpi\n      dup3\n      swap1\n      sub\n      0x1f\n      and\n      dup3\n      add\n      swap2\n    tag_119:\n      pop\n      pop\n      pop\n      pop\n      pop\n      dup2\n      jump\t// out\n        /* \"contracts/tiyin.sol\":1028:1319  function transfer(address recipient, uint amount) external returns(bool){... */\n    tag_73:\n        /* \"contracts/tiyin.sol\":1095:1099  bool */\n      0x00\n        /* \"contracts/tiyin.sol\":1119:1130  blacklisted */\n      0x04\n        /* \"contracts/tiyin.sol\":1119:1141  blacklisted[recipient] */\n      0x00\n        /* \"contracts/tiyin.sol\":1131:1140  recipient */\n      dup5\n        /* \"contracts/tiyin.sol\":1119:1141  blacklisted[recipient] */\n      0xffffffffffffffffffffffffffffffffffffffff\n      and\n      0xffffffffffffffffffffffffffffffffffffffff\n      and\n      dup2\n      mstore\n      0x20\n      add\n      swap1\n      dup2\n      mstore\n      0x20\n      add\n      0x00\n      keccak256\n      0x00\n      swap1\n      sload\n      swap1\n      0x0100\n      exp\n      swap1\n      div\n      0xff\n      and\n        /* \"contracts/tiyin.sol\":1118:1141  !blacklisted[recipient] */\n      iszero\n        /* \"contracts/tiyin.sol\":1110:1164  require(!blacklisted[recipient], \"user is backlisted\") */\n      tag_123\n      jumpi\n      mload(0x40)\n      0x08c379a000000000000000000000000000000000000000000000000000000000\n      dup2\n      mstore\n      0x04\n      add\n      tag_124\n      swap1\n      tag_125\n      jump\t// in\n    tag_124:\n      mload(0x40)\n      dup1\n      swap2\n      sub\n      swap1\n      revert\n    tag_123:\n        /* \"contracts/tiyin.sol\":1192:1198  amount */\n      dup2\n        /* \"contracts/tiyin.sol\":1174:1181  balance */\n      0x02\n        /* \"contracts/tiyin.sol\":1174:1188  balance[owner] */\n      0x00\n        /* \"contracts/tiyin.sol\":1182:1187  owner */\n      0x01\n      0x00\n      swap1\n      sload\n      swap1\n      0x0100\n      exp\n      swap1\n      div\n      0xffffffffffffffffffffffffffffffffffffffff\n      and\n        /* \"contracts/tiyin.sol\":1174:1188  balance[owner] */\n      0xffffffffffffffffffffffffffffffffffffffff\n      and\n      0xffffffffffffffffffffffffffffffffffffffff\n      and\n      dup2\n      mstore\n      0x20\n      add\n      swap1\n      dup2\n      mstore\n      0x20\n      add\n      0x00\n      keccak256\n      0x00\n        /* \"contracts/tiyin.sol\":1174:1198  balance[owner] -= amount */\n      dup3\n      dup3\n      sload\n      tag_126\n      swap2\n      swap1\n      tag_111\n      jump\t// in\n    tag_126:\n      swap3\n      pop\n      pop\n      dup2\n      swap1\n      sstore\n      pop\n        /* \"contracts/tiyin.sol\":1230:1236  amount */\n      dup2\n        /* \"contracts/tiyin.sol\":1208:1215  balance */\n      0x02\n        /* \"contracts/tiyin.sol\":1208:1226  balance[recipient] */\n      0x00\n        /* \"contracts/tiyin.sol\":1216:1225  recipient */\n      dup6\n        /* \"contracts/tiyin.sol\":1208:1226  balance[recipient] */\n      0xffffffffffffffffffffffffffffffffffffffff\n      and\n      0xffffffffffffffffffffffffffffffffffffffff\n      and\n      dup2\n      mstore\n      0x20\n      add\n      swap1\n      dup2\n      mstore\n      0x20\n      add\n      0x00\n      keccak256\n      0x00\n        /* \"contracts/tiyin.sol\":1208:1236  balance[recipient] += amount */\n      dup3\n      dup3\n      sload\n      tag_127\n      swap2\n      swap1\n      tag_114\n      jump\t// in\n    tag_127:\n      swap3\n      pop\n      pop\n      dup2\n      swap1\n      sstore\n      pop\n        /* \"contracts/tiyin.sol\":1273:1282  recipient */\n      dup3\n        /* \"contracts/tiyin.sol\":1252:1291  Transfer(msg.sender, recipient, amount) */\n      0xffffffffffffffffffffffffffffffffffffffff\n      and\n        /* \"contracts/tiyin.sol\":1261:1271  msg.sender */\n      caller\n        /* \"contracts/tiyin.sol\":1252:1291  Transfer(msg.sender, recipient, amount) */\n      0xffffffffffffffffffffffffffffffffffffffff\n      and\n      0xddf252ad1be2c89b69c2b068fc378daa952ba7f163c4a11628f55a4df523b3ef\n        /* \"contracts/tiyin.sol\":1284:1290  amount */\n      dup5\n        /* \"contracts/tiyin.sol\":1252:1291  Transfer(msg.sender, recipient, amount) */\n      mload(0x40)\n      tag_128\n      swap2\n      swap1\n      tag_38\n      jump\t// in\n    tag_128:\n      mload(0x40)\n      dup1\n      swap2\n      sub\n      swap1\n      log3\n        /* \"contracts/tiyin.sol\":1308:1312  true */\n      0x01\n        /* \"contracts/tiyin.sol\":1301:1312  return true */\n      swap1\n      pop\n        /* \"contracts/tiyin.sol\":1028:1319  function transfer(address recipient, uint amount) external returns(bool){... */\n      swap3\n      swap2\n      pop\n      pop\n      jump\t// out\n        /* \"contracts/tiyin.sol\":260:303  mapping(address => bool) public blacklisted */\n    tag_77:\n      mstore(0x20, 0x04)\n      dup1\n      0x00\n      mstore\n      keccak256(0x00, 0x40)\n      0x00\n      swap2\n      pop\n      sload\n      swap1\n      0x0100\n      exp\n      swap1\n      div\n      0xff\n      and\n      dup2\n      jump\t// out\n        /* \"contracts/tiyin.sol\":1325:1450  function allowance(address ownerr, address spender) external view returns(uint){... */\n    tag_81:\n        /* \"contracts/tiyin.sol\":1399:1403  uint */\n      0x00\n        /* \"contracts/tiyin.sol\":1421:1426  allow */\n      0x03\n        /* \"contracts/tiyin.sol\":1421:1434  allow[ownerr] */\n      0x00\n        /* \"contracts/tiyin.sol\":1427:1433  ownerr */\n      dup5\n        /* \"contracts/tiyin.sol\":1421:1434  allow[ownerr] */\n      0xffffffffffffffffffffffffffffffffffffffff\n      and\n      0xffffffffffffffffffffffffffffffffffffffff\n      and\n      dup2\n      mstore\n      0x20\n      add\n      swap1\n      dup2\n      mstore\n      0x20\n      add\n      0x00\n      keccak256\n        /* \"contracts/tiyin.sol\":1421:1443  allow[ownerr][spender] */\n      0x00\n        /* \"contracts/tiyin.sol\":1435:1442  spender */\n      dup4\n        /* \"contracts/tiyin.sol\":1421:1443  allow[ownerr][spender] */\n      0xffffffffffffffffffffffffffffffffffffffff\n      and\n      0xffffffffffffffffffffffffffffffffffffffff\n      and\n      dup2\n      mstore\n      0x20\n      add\n      swap1\n      dup2\n      mstore\n      0x20\n      add\n      0x00\n      keccak256\n      sload\n        /* \"contracts/tiyin.sol\":1414:1443  return allow[ownerr][spender] */\n      swap1\n      pop\n        /* \"contracts/tiyin.sol\":1325:1450  function allowance(address ownerr, address spender) external view returns(uint){... */\n      swap3\n      swap2\n      pop\n      pop\n      jump\t// out\n        /* \"contracts/tiyin.sol\":158:195  mapping(address=>uint) public balance */\n    tag_85:\n      mstore(0x20, 0x02)\n      dup1\n      0x00\n      mstore\n      keccak256(0x00, 0x40)\n      0x00\n      swap2\n      pop\n      swap1\n      pop\n      sload\n      dup2\n      jump\t// out\n        /* \"contracts/tiyin.sol\":414:615  function blacklist(address _account) public{... */\n    tag_89:\n        /* \"contracts/tiyin.sol\":484:494  msg.sender */\n      caller\n        /* \"contracts/tiyin.sol\":475:494  owner == msg.sender */\n      0xffffffffffffffffffffffffffffffffffffffff\n      and\n        /* \"contracts/tiyin.sol\":475:480  owner */\n      0x01\n      0x00\n      swap1\n      sload\n      swap1\n      0x0100\n      exp\n      swap1\n      div\n      0xffffffffffffffffffffffffffffffffffffffff\n      and\n        /* \"contracts/tiyin.sol\":475:494  owner == msg.sender */\n      0xffffffffffffffffffffffffffffffffffffffff\n      and\n      eq\n        /* \"contracts/tiyin.sol\":467:514  require(owner == msg.sender, \"should be owner\") */\n      tag_131\n      jumpi\n      mload(0x40)\n      0x08c379a000000000000000000000000000000000000000000000000000000000\n      dup2\n      mstore\n      0x04\n      add\n      tag_132\n      swap1\n      tag_101\n      jump\t// in\n    tag_132:\n      mload(0x40)\n      dup1\n      swap2\n      sub\n      swap1\n      revert\n    tag_131:\n        /* \"contracts/tiyin.sol\":533:544  blacklisted */\n      0x04\n        /* \"contracts/tiyin.sol\":533:554  blacklisted[_account] */\n      0x00\n        /* \"contracts/tiyin.sol\":545:553  _account */\n      dup3\n        /* \"contracts/tiyin.sol\":533:554  blacklisted[_account] */\n      0xffffffffffffffffffffffffffffffffffffffff\n      and\n      0xffffffffffffffffffffffffffffffffffffffff\n      and\n      dup2\n      mstore\n      0x20\n      add\n      swap1\n      dup2\n      mstore\n      0x20\n      add\n      0x00\n      keccak256\n      0x00\n      swap1\n      sload\n      swap1\n      0x0100\n      exp\n      swap1\n      div\n      0xff\n      and\n        /* \"contracts/tiyin.sol\":532:554  !blacklisted[_account] */\n      iszero\n        /* \"contracts/tiyin.sol\":524:570  require(!blacklisted[_account], \"blacklisted\") */\n      tag_133\n      jumpi\n      mload(0x40)\n      0x08c379a000000000000000000000000000000000000000000000000000000000\n      dup2\n      mstore\n      0x04\n      add\n      tag_134\n      swap1\n      tag_135\n      jump\t// in\n    tag_134:\n      mload(0x40)\n      dup1\n      swap2\n      sub\n      swap1\n      revert\n    tag_133:\n        /* \"contracts/tiyin.sol\":604:608  true */\n      0x01\n        /* \"contracts/tiyin.sol\":580:591  blacklisted */\n      0x04\n        /* \"contracts/tiyin.sol\":580:601  blacklisted[_account] */\n      0x00\n        /* \"contracts/tiyin.sol\":592:600  _account */\n      dup4\n        /* \"contracts/tiyin.sol\":580:601  blacklisted[_account] */\n      0xffffffffffffffffffffffffffffffffffffffff\n      and\n      0xffffffffffffffffffffffffffffffffffffffff\n      and\n      dup2\n      mstore\n      0x20\n      add\n      swap1\n      dup2\n      mstore\n      0x20\n      add\n      0x00\n      keccak256\n      0x00\n        /* \"contracts/tiyin.sol\":580:608  blacklisted[_account] = true */\n      0x0100\n      exp\n      dup2\n      sload\n      dup2\n      0xff\n      mul\n      not\n      and\n      swap1\n      dup4\n      iszero\n      iszero\n      mul\n      or\n      swap1\n      sstore\n      pop\n        /* \"contracts/tiyin.sol\":414:615  function blacklist(address _account) public{... */\n      pop\n      jump\t// out\n        /* \"#utility.yul\":7:146   */\n    tag_137:\n        /* \"#utility.yul\":53:58   */\n      0x00\n        /* \"#utility.yul\":91:97   */\n      dup2\n        /* \"#utility.yul\":78:98   */\n      calldataload\n        /* \"#utility.yul\":69:98   */\n      swap1\n      pop\n        /* \"#utility.yul\":107:140   */\n      tag_139\n        /* \"#utility.yul\":134:139   */\n      dup2\n        /* \"#utility.yul\":107:140   */\n      tag_140\n      jump\t// in\n    tag_139:\n        /* \"#utility.yul\":7:146   */\n      swap3\n      swap2\n      pop\n      pop\n      jump\t// out\n        /* \"#utility.yul\":152:291   */\n    tag_141:\n        /* \"#utility.yul\":198:203   */\n      0x00\n        /* \"#utility.yul\":236:242   */\n      dup2\n        /* \"#utility.yul\":223:243   */\n      calldataload\n        /* \"#utility.yul\":214:243   */\n      swap1\n      pop\n        /* \"#utility.yul\":252:285   */\n      tag_143\n        /* \"#utility.yul\":279:284   */\n      dup2\n        /* \"#utility.yul\":252:285   */\n      tag_144\n      jump\t// in\n    tag_143:\n        /* \"#utility.yul\":152:291   */\n      swap3\n      swap2\n      pop\n      pop\n      jump\t// out\n        /* \"#utility.yul\":297:626   */\n    tag_41:\n        /* \"#utility.yul\":356:362   */\n      0x00\n        /* \"#utility.yul\":405:407   */\n      0x20\n        /* \"#utility.yul\":393:402   */\n      dup3\n        /* \"#utility.yul\":384:391   */\n      dup5\n        /* \"#utility.yul\":380:403   */\n      sub\n        /* \"#utility.yul\":376:408   */\n      slt\n        /* \"#utility.yul\":373:492   */\n      iszero\n      tag_146\n      jumpi\n        /* \"#utility.yul\":411:490   */\n      tag_147\n      tag_148\n      jump\t// in\n    tag_147:\n        /* \"#utility.yul\":373:492   */\n    tag_146:\n        /* \"#utility.yul\":531:532   */\n      0x00\n        /* \"#utility.yul\":556:609   */\n      tag_149\n        /* \"#utility.yul\":601:608   */\n      dup5\n        /* \"#utility.yul\":592:598   */\n      dup3\n        /* \"#utility.yul\":581:590   */\n      dup6\n        /* \"#utility.yul\":577:599   */\n      add\n        /* \"#utility.yul\":556:609   */\n      tag_137\n      jump\t// in\n    tag_149:\n        /* \"#utility.yul\":546:609   */\n      swap2\n      pop\n        /* \"#utility.yul\":502:619   */\n      pop\n        /* \"#utility.yul\":297:626   */\n      swap3\n      swap2\n      pop\n      pop\n      jump\t// out\n        /* \"#utility.yul\":632:1106   */\n    tag_61:\n        /* \"#utility.yul\":700:706   */\n      0x00\n        /* \"#utility.yul\":708:714   */\n      dup1\n        /* \"#utility.yul\":757:759   */\n      0x40\n        /* \"#utility.yul\":745:754   */\n      dup4\n        /* \"#utility.yul\":736:743   */\n      dup6\n        /* \"#utility.yul\":732:755   */\n      sub\n        /* \"#utility.yul\":728:760   */\n      slt\n        /* \"#utility.yul\":725:844   */\n      iszero\n      tag_151\n      jumpi\n        /* \"#utility.yul\":763:842   */\n      tag_152\n      tag_148\n      jump\t// in\n    tag_152:\n        /* \"#utility.yul\":725:844   */\n    tag_151:\n        /* \"#utility.yul\":883:884   */\n      0x00\n        /* \"#utility.yul\":908:961   */\n      tag_153\n        /* \"#utility.yul\":953:960   */\n      dup6\n        /* \"#utility.yul\":944:950   */\n      dup3\n        /* \"#utility.yul\":933:942   */\n      dup7\n        /* \"#utility.yul\":929:951   */\n      add\n        /* \"#utility.yul\":908:961   */\n      tag_137\n      jump\t// in\n    tag_153:\n        /* \"#utility.yul\":898:961   */\n      swap3\n      pop\n        /* \"#utility.yul\":854:971   */\n      pop\n        /* \"#utility.yul\":1010:1012   */\n      0x20\n        /* \"#utility.yul\":1036:1089   */\n      tag_154\n        /* \"#utility.yul\":1081:1088   */\n      dup6\n        /* \"#utility.yul\":1072:1078   */\n      dup3\n        /* \"#utility.yul\":1061:1070   */\n      dup7\n        /* \"#utility.yul\":1057:1079   */\n      add\n        /* \"#utility.yul\":1036:1089   */\n      tag_137\n      jump\t// in\n    tag_154:\n        /* \"#utility.yul\":1026:1089   */\n      swap2\n      pop\n        /* \"#utility.yul\":981:1099   */\n      pop\n        /* \"#utility.yul\":632:1106   */\n      swap3\n      pop\n      swap3\n      swap1\n      pop\n      jump\t// out\n        /* \"#utility.yul\":1112:1731   */\n    tag_45:\n        /* \"#utility.yul\":1189:1195   */\n      0x00\n        /* \"#utility.yul\":1197:1203   */\n      dup1\n        /* \"#utility.yul\":1205:1211   */\n      0x00\n        /* \"#utility.yul\":1254:1256   */\n      0x60\n        /* \"#utility.yul\":1242:1251   */\n      dup5\n        /* \"#utility.yul\":1233:1240   */\n      dup7\n        /* \"#utility.yul\":1229:1252   */\n      sub\n        /* \"#utility.yul\":1225:1257   */\n      slt\n        /* \"#utility.yul\":1222:1341   */\n      iszero\n      tag_156\n      jumpi\n        /* \"#utility.yul\":1260:1339   */\n      tag_157\n      tag_148\n      jump\t// in\n    tag_157:\n        /* \"#utility.yul\":1222:1341   */\n    tag_156:\n        /* \"#utility.yul\":1380:1381   */\n      0x00\n        /* \"#utility.yul\":1405:1458   */\n      tag_158\n        /* \"#utility.yul\":1450:1457   */\n      dup7\n        /* \"#utility.yul\":1441:1447   */\n      dup3\n        /* \"#utility.yul\":1430:1439   */\n      dup8\n        /* \"#utility.yul\":1426:1448   */\n      add\n        /* \"#utility.yul\":1405:1458   */\n      tag_137\n      jump\t// in\n    tag_158:\n        /* \"#utility.yul\":1395:1458   */\n      swap4\n      pop\n        /* \"#utility.yul\":1351:1468   */\n      pop\n        /* \"#utility.yul\":1507:1509   */\n      0x20\n        /* \"#utility.yul\":1533:1586   */\n      tag_159\n        /* \"#utility.yul\":1578:1585   */\n      dup7\n        /* \"#utility.yul\":1569:1575   */\n      dup3\n        /* \"#utility.yul\":1558:1567   */\n      dup8\n        /* \"#utility.yul\":1554:1576   */\n      add\n        /* \"#utility.yul\":1533:1586   */\n      tag_137\n      jump\t// in\n    tag_159:\n        /* \"#utility.yul\":1523:1586   */\n      swap3\n      pop\n        /* \"#utility.yul\":1478:1596   */\n      pop\n        /* \"#utility.yul\":1635:1637   */\n      0x40\n        /* \"#utility.yul\":1661:1714   */\n      tag_160\n        /* \"#utility.yul\":1706:1713   */\n      dup7\n        /* \"#utility.yul\":1697:1703   */\n      dup3\n        /* \"#utility.yul\":1686:1695   */\n      dup8\n        /* \"#utility.yul\":1682:1704   */\n      add\n        /* \"#utility.yul\":1661:1714   */\n      tag_141\n      jump\t// in\n    tag_160:\n        /* \"#utility.yul\":1651:1714   */\n      swap2\n      pop\n        /* \"#utility.yul\":1606:1724   */\n      pop\n        /* \"#utility.yul\":1112:1731   */\n      swap3\n      pop\n      swap3\n      pop\n      swap3\n      jump\t// out\n        /* \"#utility.yul\":1737:2211   */\n    tag_29:\n        /* \"#utility.yul\":1805:1811   */\n      0x00\n        /* \"#utility.yul\":1813:1819   */\n      dup1\n        /* \"#utility.yul\":1862:1864   */\n      0x40\n        /* \"#utility.yul\":1850:1859   */\n      dup4\n        /* \"#utility.yul\":1841:1848   */\n      dup6\n        /* \"#utility.yul\":1837:1860   */\n      sub\n        /* \"#utility.yul\":1833:1865   */\n      slt\n        /* \"#utility.yul\":1830:1949   */\n      iszero\n      tag_162\n      jumpi\n        /* \"#utility.yul\":1868:1947   */\n      tag_163\n      tag_148\n      jump\t// in\n    tag_163:\n        /* \"#utility.yul\":1830:1949   */\n    tag_162:\n        /* \"#utility.yul\":1988:1989   */\n      0x00\n        /* \"#utility.yul\":2013:2066   */\n      tag_164\n        /* \"#utility.yul\":2058:2065   */\n      dup6\n        /* \"#utility.yul\":2049:2055   */\n      dup3\n        /* \"#utility.yul\":2038:2047   */\n      dup7\n        /* \"#utility.yul\":2034:2056   */\n      add\n        /* \"#utility.yul\":2013:2066   */\n      tag_137\n      jump\t// in\n    tag_164:\n        /* \"#utility.yul\":2003:2066   */\n      swap3\n      pop\n        /* \"#utility.yul\":1959:2076   */\n      pop\n        /* \"#utility.yul\":2115:2117   */\n      0x20\n        /* \"#utility.yul\":2141:2194   */\n      tag_165\n        /* \"#utility.yul\":2186:2193   */\n      dup6\n        /* \"#utility.yul\":2177:2183   */\n      dup3\n        /* \"#utility.yul\":2166:2175   */\n      dup7\n        /* \"#utility.yul\":2162:2184   */\n      add\n        /* \"#utility.yul\":2141:2194   */\n      tag_141\n      jump\t// in\n    tag_165:\n        /* \"#utility.yul\":2131:2194   */\n      swap2\n      pop\n        /* \"#utility.yul\":2086:2204   */\n      pop\n        /* \"#utility.yul\":1737:2211   */\n      swap3\n      pop\n      swap3\n      swap1\n      pop\n      jump\t// out\n        /* \"#utility.yul\":2217:2335   */\n    tag_166:\n        /* \"#utility.yul\":2304:2328   */\n      tag_168\n        /* \"#utility.yul\":2322:2327   */\n      dup2\n        /* \"#utility.yul\":2304:2328   */\n      tag_169\n      jump\t// in\n    tag_168:\n        /* \"#utility.yul\":2299:2302   */\n      dup3\n        /* \"#utility.yul\":2292:2329   */\n      mstore\n        /* \"#utility.yul\":2217:2335   */\n      pop\n      pop\n      jump\t// out\n        /* \"#utility.yul\":2341:2450   */\n    tag_170:\n        /* \"#utility.yul\":2422:2443   */\n      tag_172\n        /* \"#utility.yul\":2437:2442   */\n      dup2\n        /* \"#utility.yul\":2422:2443   */\n      tag_173\n      jump\t// in\n    tag_172:\n        /* \"#utility.yul\":2417:2420   */\n      dup3\n        /* \"#utility.yul\":2410:2444   */\n      mstore\n        /* \"#utility.yul\":2341:2450   */\n      pop\n      pop\n      jump\t// out\n        /* \"#utility.yul\":2456:2820   */\n    tag_174:\n        /* \"#utility.yul\":2544:2547   */\n      0x00\n        /* \"#utility.yul\":2572:2611   */\n      tag_176\n        /* \"#utility.yul\":2605:2610   */\n      dup3\n        /* \"#utility.yul\":2572:2611   */\n      tag_177\n      jump\t// in\n    tag_176:\n        /* \"#utility.yul\":2627:2698   */\n      tag_178\n        /* \"#utility.yul\":2691:2697   */\n      dup2\n        /* \"#utility.yul\":2686:2689   */\n      dup6\n        /* \"#utility.yul\":2627:2698   */\n      tag_179\n      jump\t// in\n    tag_178:\n        /* \"#utility.yul\":2620:2698   */\n      swap4\n      pop\n        /* \"#utility.yul\":2707:2759   */\n      tag_180\n        /* \"#utility.yul\":2752:2758   */\n      dup2\n        /* \"#utility.yul\":2747:2750   */\n      dup6\n        /* \"#utility.yul\":2740:2744   */\n      0x20\n        /* \"#utility.yul\":2733:2738   */\n      dup7\n        /* \"#utility.yul\":2729:2745   */\n      add\n        /* \"#utility.yul\":2707:2759   */\n      tag_181\n      jump\t// in\n    tag_180:\n        /* \"#utility.yul\":2784:2813   */\n      tag_182\n        /* \"#utility.yul\":2806:2812   */\n      dup2\n        /* \"#utility.yul\":2784:2813   */\n      tag_183\n      jump\t// in\n    tag_182:\n        /* \"#utility.yul\":2779:2782   */\n      dup5\n        /* \"#utility.yul\":2775:2814   */\n      add\n        /* \"#utility.yul\":2768:2814   */\n      swap2\n      pop\n        /* \"#utility.yul\":2548:2820   */\n      pop\n        /* \"#utility.yul\":2456:2820   */\n      swap3\n      swap2\n      pop\n      pop\n      jump\t// out\n        /* \"#utility.yul\":2826:3192   */\n    tag_184:\n        /* \"#utility.yul\":2968:2971   */\n      0x00\n        /* \"#utility.yul\":2989:3056   */\n      tag_186\n        /* \"#utility.yul\":3053:3055   */\n      0x12\n        /* \"#utility.yul\":3048:3051   */\n      dup4\n        /* \"#utility.yul\":2989:3056   */\n      tag_179\n      jump\t// in\n    tag_186:\n        /* \"#utility.yul\":2982:3056   */\n      swap2\n      pop\n        /* \"#utility.yul\":3065:3158   */\n      tag_187\n        /* \"#utility.yul\":3154:3157   */\n      dup3\n        /* \"#utility.yul\":3065:3158   */\n      tag_188\n      jump\t// in\n    tag_187:\n        /* \"#utility.yul\":3183:3185   */\n      0x20\n        /* \"#utility.yul\":3178:3181   */\n      dup3\n        /* \"#utility.yul\":3174:3186   */\n      add\n        /* \"#utility.yul\":3167:3186   */\n      swap1\n      pop\n        /* \"#utility.yul\":2826:3192   */\n      swap2\n      swap1\n      pop\n      jump\t// out\n        /* \"#utility.yul\":3198:3564   */\n    tag_189:\n        /* \"#utility.yul\":3340:3343   */\n      0x00\n        /* \"#utility.yul\":3361:3428   */\n      tag_191\n        /* \"#utility.yul\":3425:3427   */\n      0x0b\n        /* \"#utility.yul\":3420:3423   */\n      dup4\n        /* \"#utility.yul\":3361:3428   */\n      tag_179\n      jump\t// in\n    tag_191:\n        /* \"#utility.yul\":3354:3428   */\n      swap2\n      pop\n        /* \"#utility.yul\":3437:3530   */\n      tag_192\n        /* \"#utility.yul\":3526:3529   */\n      dup3\n        /* \"#utility.yul\":3437:3530   */\n      tag_193\n      jump\t// in\n    tag_192:\n        /* \"#utility.yul\":3555:3557   */\n      0x20\n        /* \"#utility.yul\":3550:3553   */\n      dup3\n        /* \"#utility.yul\":3546:3558   */\n      add\n        /* \"#utility.yul\":3539:3558   */\n      swap1\n      pop\n        /* \"#utility.yul\":3198:3564   */\n      swap2\n      swap1\n      pop\n      jump\t// out\n        /* \"#utility.yul\":3570:3936   */\n    tag_194:\n        /* \"#utility.yul\":3712:3715   */\n      0x00\n        /* \"#utility.yul\":3733:3800   */\n      tag_196\n        /* \"#utility.yul\":3797:3799   */\n      0x0f\n        /* \"#utility.yul\":3792:3795   */\n      dup4\n        /* \"#utility.yul\":3733:3800   */\n      tag_179\n      jump\t// in\n    tag_196:\n        /* \"#utility.yul\":3726:3800   */\n      swap2\n      pop\n        /* \"#utility.yul\":3809:3902   */\n      tag_197\n        /* \"#utility.yul\":3898:3901   */\n      dup3\n        /* \"#utility.yul\":3809:3902   */\n      tag_198\n      jump\t// in\n    tag_197:\n        /* \"#utility.yul\":3927:3929   */\n      0x20\n        /* \"#utility.yul\":3922:3925   */\n      dup3\n        /* \"#utility.yul\":3918:3930   */\n      add\n        /* \"#utility.yul\":3911:3930   */\n      swap1\n      pop\n        /* \"#utility.yul\":3570:3936   */\n      swap2\n      swap1\n      pop\n      jump\t// out\n        /* \"#utility.yul\":3942:4308   */\n    tag_199:\n        /* \"#utility.yul\":4084:4087   */\n      0x00\n        /* \"#utility.yul\":4105:4172   */\n      tag_201\n        /* \"#utility.yul\":4169:4171   */\n      0x0b\n        /* \"#utility.yul\":4164:4167   */\n      dup4\n        /* \"#utility.yul\":4105:4172   */\n      tag_179\n      jump\t// in\n    tag_201:\n        /* \"#utility.yul\":4098:4172   */\n      swap2\n      pop\n        /* \"#utility.yul\":4181:4274   */\n      tag_202\n        /* \"#utility.yul\":4270:4273   */\n      dup3\n        /* \"#utility.yul\":4181:4274   */\n      tag_203\n      jump\t// in\n    tag_202:\n        /* \"#utility.yul\":4299:4301   */\n      0x20\n        /* \"#utility.yul\":4294:4297   */\n      dup3\n        /* \"#utility.yul\":4290:4302   */\n      add\n        /* \"#utility.yul\":4283:4302   */\n      swap1\n      pop\n        /* \"#utility.yul\":3942:4308   */\n      swap2\n      swap1\n      pop\n      jump\t// out\n        /* \"#utility.yul\":4314:4432   */\n    tag_204:\n        /* \"#utility.yul\":4401:4425   */\n      tag_206\n        /* \"#utility.yul\":4419:4424   */\n      dup2\n        /* \"#utility.yul\":4401:4425   */\n      tag_207\n      jump\t// in\n    tag_206:\n        /* \"#utility.yul\":4396:4399   */\n      dup3\n        /* \"#utility.yul\":4389:4426   */\n      mstore\n        /* \"#utility.yul\":4314:4432   */\n      pop\n      pop\n      jump\t// out\n        /* \"#utility.yul\":4438:4550   */\n    tag_208:\n        /* \"#utility.yul\":4521:4543   */\n      tag_210\n        /* \"#utility.yul\":4537:4542   */\n      dup2\n        /* \"#utility.yul\":4521:4543   */\n      tag_211\n      jump\t// in\n    tag_210:\n        /* \"#utility.yul\":4516:4519   */\n      dup3\n        /* \"#utility.yul\":4509:4544   */\n      mstore\n        /* \"#utility.yul\":4438:4550   */\n      pop\n      pop\n      jump\t// out\n        /* \"#utility.yul\":4556:4778   */\n    tag_67:\n        /* \"#utility.yul\":4649:4653   */\n      0x00\n        /* \"#utility.yul\":4687:4689   */\n      0x20\n        /* \"#utility.yul\":4676:4685   */\n      dup3\n        /* \"#utility.yul\":4672:4690   */\n      add\n        /* \"#utility.yul\":4664:4690   */\n      swap1\n      pop\n        /* \"#utility.yul\":4700:4771   */\n      tag_213\n        /* \"#utility.yul\":4768:4769   */\n      0x00\n        /* \"#utility.yul\":4757:4766   */\n      dup4\n        /* \"#utility.yul\":4753:4770   */\n      add\n        /* \"#utility.yul\":4744:4750   */\n      dup5\n        /* \"#utility.yul\":4700:4771   */\n      tag_166\n      jump\t// in\n    tag_213:\n        /* \"#utility.yul\":4556:4778   */\n      swap3\n      swap2\n      pop\n      pop\n      jump\t// out\n        /* \"#utility.yul\":4784:4994   */\n    tag_32:\n        /* \"#utility.yul\":4871:4875   */\n      0x00\n        /* \"#utility.yul\":4909:4911   */\n      0x20\n        /* \"#utility.yul\":4898:4907   */\n      dup3\n        /* \"#utility.yul\":4894:4912   */\n      add\n        /* \"#utility.yul\":4886:4912   */\n      swap1\n      pop\n        /* \"#utility.yul\":4922:4987   */\n      tag_215\n        /* \"#utility.yul\":4984:4985   */\n      0x00\n        /* \"#utility.yul\":4973:4982   */\n      dup4\n        /* \"#utility.yul\":4969:4986   */\n      add\n        /* \"#utility.yul\":4960:4966   */\n      dup5\n        /* \"#utility.yul\":4922:4987   */\n      tag_170\n      jump\t// in\n    tag_215:\n        /* \"#utility.yul\":4784:4994   */\n      swap3\n      swap2\n      pop\n      pop\n      jump\t// out\n        /* \"#utility.yul\":5000:5313   */\n    tag_26:\n        /* \"#utility.yul\":5113:5117   */\n      0x00\n        /* \"#utility.yul\":5151:5153   */\n      0x20\n        /* \"#utility.yul\":5140:5149   */\n      dup3\n        /* \"#utility.yul\":5136:5154   */\n      add\n        /* \"#utility.yul\":5128:5154   */\n      swap1\n      pop\n        /* \"#utility.yul\":5200:5209   */\n      dup2\n        /* \"#utility.yul\":5194:5198   */\n      dup2\n        /* \"#utility.yul\":5190:5210   */\n      sub\n        /* \"#utility.yul\":5186:5187   */\n      0x00\n        /* \"#utility.yul\":5175:5184   */\n      dup4\n        /* \"#utility.yul\":5171:5188   */\n      add\n        /* \"#utility.yul\":5164:5211   */\n      mstore\n        /* \"#utility.yul\":5228:5306   */\n      tag_217\n        /* \"#utility.yul\":5301:5305   */\n      dup2\n        /* \"#utility.yul\":5292:5298   */\n      dup5\n        /* \"#utility.yul\":5228:5306   */\n      tag_174\n      jump\t// in\n    tag_217:\n        /* \"#utility.yul\":5220:5306   */\n      swap1\n      pop\n        /* \"#utility.yul\":5000:5313   */\n      swap3\n      swap2\n      pop\n      pop\n      jump\t// out\n        /* \"#utility.yul\":5319:5738   */\n    tag_125:\n        /* \"#utility.yul\":5485:5489   */\n      0x00\n        /* \"#utility.yul\":5523:5525   */\n      0x20\n        /* \"#utility.yul\":5512:5521   */\n      dup3\n        /* \"#utility.yul\":5508:5526   */\n      add\n        /* \"#utility.yul\":5500:5526   */\n      swap1\n      pop\n        /* \"#utility.yul\":5572:5581   */\n      dup2\n        /* \"#utility.yul\":5566:5570   */\n      dup2\n        /* \"#utility.yul\":5562:5582   */\n      sub\n        /* \"#utility.yul\":5558:5559   */\n      0x00\n        /* \"#utility.yul\":5547:5556   */\n      dup4\n        /* \"#utility.yul\":5543:5560   */\n      add\n        /* \"#utility.yul\":5536:5583   */\n      mstore\n        /* \"#utility.yul\":5600:5731   */\n      tag_219\n        /* \"#utility.yul\":5726:5730   */\n      dup2\n        /* \"#utility.yul\":5600:5731   */\n      tag_184\n      jump\t// in\n    tag_219:\n        /* \"#utility.yul\":5592:5731   */\n      swap1\n      pop\n        /* \"#utility.yul\":5319:5738   */\n      swap2\n      swap1\n      pop\n      jump\t// out\n        /* \"#utility.yul\":5744:6163   */\n    tag_108:\n        /* \"#utility.yul\":5910:5914   */\n      0x00\n        /* \"#utility.yul\":5948:5950   */\n      0x20\n        /* \"#utility.yul\":5937:5946   */\n      dup3\n        /* \"#utility.yul\":5933:5951   */\n      add\n        /* \"#utility.yul\":5925:5951   */\n      swap1\n      pop\n        /* \"#utility.yul\":5997:6006   */\n      dup2\n        /* \"#utility.yul\":5991:5995   */\n      dup2\n        /* \"#utility.yul\":5987:6007   */\n      sub\n        /* \"#utility.yul\":5983:5984   */\n      0x00\n        /* \"#utility.yul\":5972:5981   */\n      dup4\n        /* \"#utility.yul\":5968:5985   */\n      add\n        /* \"#utility.yul\":5961:6008   */\n      mstore\n        /* \"#utility.yul\":6025:6156   */\n      tag_221\n        /* \"#utility.yul\":6151:6155   */\n      dup2\n        /* \"#utility.yul\":6025:6156   */\n      tag_189\n      jump\t// in\n    tag_221:\n        /* \"#utility.yul\":6017:6156   */\n      swap1\n      pop\n        /* \"#utility.yul\":5744:6163   */\n      swap2\n      swap1\n      pop\n      jump\t// out\n        /* \"#utility.yul\":6169:6588   */\n    tag_101:\n        /* \"#utility.yul\":6335:6339   */\n      0x00\n        /* \"#utility.yul\":6373:6375   */\n      0x20\n        /* \"#utility.yul\":6362:6371   */\n      dup3\n        /* \"#utility.yul\":6358:6376   */\n      add\n        /* \"#utility.yul\":6350:6376   */\n      swap1\n      pop\n        /* \"#utility.yul\":6422:6431   */\n      dup2\n        /* \"#utility.yul\":6416:6420   */\n      dup2\n        /* \"#utility.yul\":6412:6432   */\n      sub\n        /* \"#utility.yul\":6408:6409   */\n      0x00\n        /* \"#utility.yul\":6397:6406   */\n      dup4\n        /* \"#utility.yul\":6393:6410   */\n      add\n        /* \"#utility.yul\":6386:6433   */\n      mstore\n        /* \"#utility.yul\":6450:6581   */\n      tag_223\n        /* \"#utility.yul\":6576:6580   */\n      dup2\n        /* \"#utility.yul\":6450:6581   */\n      tag_194\n      jump\t// in\n    tag_223:\n        /* \"#utility.yul\":6442:6581   */\n      swap1\n      pop\n        /* \"#utility.yul\":6169:6588   */\n      swap2\n      swap1\n      pop\n      jump\t// out\n        /* \"#utility.yul\":6594:7013   */\n    tag_135:\n        /* \"#utility.yul\":6760:6764   */\n      0x00\n        /* \"#utility.yul\":6798:6800   */\n      0x20\n        /* \"#utility.yul\":6787:6796   */\n      dup3\n        /* \"#utility.yul\":6783:6801   */\n      add\n        /* \"#utility.yul\":6775:6801   */\n      swap1\n      pop\n        /* \"#utility.yul\":6847:6856   */\n      dup2\n        /* \"#utility.yul\":6841:6845   */\n      dup2\n        /* \"#utility.yul\":6837:6857   */\n      sub\n        /* \"#utility.yul\":6833:6834   */\n      0x00\n        /* \"#utility.yul\":6822:6831   */\n      dup4\n        /* \"#utility.yul\":6818:6835   */\n      add\n        /* \"#utility.yul\":6811:6858   */\n      mstore\n        /* \"#utility.yul\":6875:7006   */\n      tag_225\n        /* \"#utility.yul\":7001:7005   */\n      dup2\n        /* \"#utility.yul\":6875:7006   */\n      tag_199\n      jump\t// in\n    tag_225:\n        /* \"#utility.yul\":6867:7006   */\n      swap1\n      pop\n        /* \"#utility.yul\":6594:7013   */\n      swap2\n      swap1\n      pop\n      jump\t// out\n        /* \"#utility.yul\":7019:7241   */\n    tag_38:\n        /* \"#utility.yul\":7112:7116   */\n      0x00\n        /* \"#utility.yul\":7150:7152   */\n      0x20\n        /* \"#utility.yul\":7139:7148   */\n      dup3\n        /* \"#utility.yul\":7135:7153   */\n      add\n        /* \"#utility.yul\":7127:7153   */\n      swap1\n      pop\n        /* \"#utility.yul\":7163:7234   */\n      tag_227\n        /* \"#utility.yul\":7231:7232   */\n      0x00\n        /* \"#utility.yul\":7220:7229   */\n      dup4\n        /* \"#utility.yul\":7216:7233   */\n      add\n        /* \"#utility.yul\":7207:7213   */\n      dup5\n        /* \"#utility.yul\":7163:7234   */\n      tag_204\n      jump\t// in\n    tag_227:\n        /* \"#utility.yul\":7019:7241   */\n      swap3\n      swap2\n      pop\n      pop\n      jump\t// out\n        /* \"#utility.yul\":7247:7461   */\n    tag_58:\n        /* \"#utility.yul\":7336:7340   */\n      0x00\n        /* \"#utility.yul\":7374:7376   */\n      0x20\n        /* \"#utility.yul\":7363:7372   */\n      dup3\n        /* \"#utility.yul\":7359:7377   */\n      add\n        /* \"#utility.yul\":7351:7377   */\n      swap1\n      pop\n        /* \"#utility.yul\":7387:7454   */\n      tag_229\n        /* \"#utility.yul\":7451:7452   */\n      0x00\n        /* \"#utility.yul\":7440:7449   */\n      dup4\n        /* \"#utility.yul\":7436:7453   */\n      add\n        /* \"#utility.yul\":7427:7433   */\n      dup5\n        /* \"#utility.yul\":7387:7454   */\n      tag_208\n      jump\t// in\n    tag_229:\n        /* \"#utility.yul\":7247:7461   */\n      swap3\n      swap2\n      pop\n      pop\n      jump\t// out\n        /* \"#utility.yul\":7548:7647   */\n    tag_177:\n        /* \"#utility.yul\":7600:7606   */\n      0x00\n        /* \"#utility.yul\":7634:7639   */\n      dup2\n        /* \"#utility.yul\":7628:7640   */\n      mload\n        /* \"#utility.yul\":7618:7640   */\n      swap1\n      pop\n        /* \"#utility.yul\":7548:7647   */\n      swap2\n      swap1\n      pop\n      jump\t// out\n        /* \"#utility.yul\":7653:7822   */\n    tag_179:\n        /* \"#utility.yul\":7737:7748   */\n      0x00\n        /* \"#utility.yul\":7771:7777   */\n      dup3\n        /* \"#utility.yul\":7766:7769   */\n      dup3\n        /* \"#utility.yul\":7759:7778   */\n      mstore\n        /* \"#utility.yul\":7811:7815   */\n      0x20\n        /* \"#utility.yul\":7806:7809   */\n      dup3\n        /* \"#utility.yul\":7802:7816   */\n      add\n        /* \"#utility.yul\":7787:7816   */\n      swap1\n      pop\n        /* \"#utility.yul\":7653:7822   */\n      swap3\n      swap2\n      pop\n      pop\n      jump\t// out\n        /* \"#utility.yul\":7828:8133   */\n    tag_114:\n        /* \"#utility.yul\":7868:7871   */\n      0x00\n        /* \"#utility.yul\":7887:7907   */\n      tag_235\n        /* \"#utility.yul\":7905:7906   */\n      dup3\n        /* \"#utility.yul\":7887:7907   */\n      tag_207\n      jump\t// in\n    tag_235:\n        /* \"#utility.yul\":7882:7907   */\n      swap2\n      pop\n        /* \"#utility.yul\":7921:7941   */\n      tag_236\n        /* \"#utility.yul\":7939:7940   */\n      dup4\n        /* \"#utility.yul\":7921:7941   */\n      tag_207\n      jump\t// in\n    tag_236:\n        /* \"#utility.yul\":7916:7941   */\n      swap3\n      pop\n        /* \"#utility.yul\":8075:8076   */\n      dup3\n        /* \"#utility.yul\":8007:8073   */\n      0xffffffffffffffffffffffffffffffffffffffffffffffffffffffffffffffff\n        /* \"#utility.yul\":8003:8077   */\n      sub\n        /* \"#utility.yul\":8000:8001   */\n      dup3\n        /* \"#utility.yul\":7997:8078   */\n      gt\n        /* \"#utility.yul\":7994:8101   */\n      iszero\n      tag_237\n      jumpi\n        /* \"#utility.yul\":8081:8099   */\n      tag_238\n      tag_239\n      jump\t// in\n    tag_238:\n        /* \"#utility.yul\":7994:8101   */\n    tag_237:\n        /* \"#utility.yul\":8125:8126   */\n      dup3\n        /* \"#utility.yul\":8122:8123   */\n      dup3\n        /* \"#utility.yul\":8118:8127   */\n      add\n        /* \"#utility.yul\":8111:8127   */\n      swap1\n      pop\n        /* \"#utility.yul\":7828:8133   */\n      swap3\n      swap2\n      pop\n      pop\n      jump\t// out\n        /* \"#utility.yul\":8139:8330   */\n    tag_111:\n        /* \"#utility.yul\":8179:8183   */\n      0x00\n        /* \"#utility.yul\":8199:8219   */\n      tag_241\n        /* \"#utility.yul\":8217:8218   */\n      dup3\n        /* \"#utility.yul\":8199:8219   */\n      tag_207\n      jump\t// in\n    tag_241:\n        /* \"#utility.yul\":8194:8219   */\n      swap2\n      pop\n        /* \"#utility.yul\":8233:8253   */\n      tag_242\n        /* \"#utility.yul\":8251:8252   */\n      dup4\n        /* \"#utility.yul\":8233:8253   */\n      tag_207\n      jump\t// in\n    tag_242:\n        /* \"#utility.yul\":8228:8253   */\n      swap3\n      pop\n        /* \"#utility.yul\":8272:8273   */\n      dup3\n        /* \"#utility.yul\":8269:8270   */\n      dup3\n        /* \"#utility.yul\":8266:8274   */\n      lt\n        /* \"#utility.yul\":8263:8297   */\n      iszero\n      tag_243\n      jumpi\n        /* \"#utility.yul\":8277:8295   */\n      tag_244\n      tag_239\n      jump\t// in\n    tag_244:\n        /* \"#utility.yul\":8263:8297   */\n    tag_243:\n        /* \"#utility.yul\":8322:8323   */\n      dup3\n        /* \"#utility.yul\":8319:8320   */\n      dup3\n        /* \"#utility.yul\":8315:8324   */\n      sub\n        /* \"#utility.yul\":8307:8324   */\n      swap1\n      pop\n        /* \"#utility.yul\":8139:8330   */\n      swap3\n      swap2\n      pop\n      pop\n      jump\t// out\n        /* \"#utility.yul\":8336:8432   */\n    tag_169:\n        /* \"#utility.yul\":8373:8380   */\n      0x00\n        /* \"#utility.yul\":8402:8426   */\n      tag_246\n        /* \"#utility.yul\":8420:8425   */\n      dup3\n        /* \"#utility.yul\":8402:8426   */\n      tag_247\n      jump\t// in\n    tag_246:\n        /* \"#utility.yul\":8391:8426   */\n      swap1\n      pop\n        /* \"#utility.yul\":8336:8432   */\n      swap2\n      swap1\n      pop\n      jump\t// out\n        /* \"#utility.yul\":8438:8528   */\n    tag_173:\n        /* \"#utility.yul\":8472:8479   */\n      0x00\n        /* \"#utility.yul\":8515:8520   */\n      dup2\n        /* \"#utility.yul\":8508:8521   */\n      iszero\n        /* \"#utility.yul\":8501:8522   */\n      iszero\n        /* \"#utility.yul\":8490:8522   */\n      swap1\n      pop\n        /* \"#utility.yul\":8438:8528   */\n      swap2\n      swap1\n      pop\n      jump\t// out\n        /* \"#utility.yul\":8534:8660   */\n    tag_247:\n        /* \"#utility.yul\":8571:8578   */\n      0x00\n        /* \"#utility.yul\":8611:8653   */\n      0xffffffffffffffffffffffffffffffffffffffff\n        /* \"#utility.yul\":8604:8609   */\n      dup3\n        /* \"#utility.yul\":8600:8654   */\n      and\n        /* \"#utility.yul\":8589:8654   */\n      swap1\n      pop\n        /* \"#utility.yul\":8534:8660   */\n      swap2\n      swap1\n      pop\n      jump\t// out\n        /* \"#utility.yul\":8666:8743   */\n    tag_207:\n        /* \"#utility.yul\":8703:8710   */\n      0x00\n        /* \"#utility.yul\":8732:8737   */\n      dup2\n        /* \"#utility.yul\":8721:8737   */\n      swap1\n      pop\n        /* \"#utility.yul\":8666:8743   */\n      swap2\n      swap1\n      pop\n      jump\t// out\n        /* \"#utility.yul\":8749:8835   */\n    tag_211:\n        /* \"#utility.yul\":8784:8791   */\n      0x00\n        /* \"#utility.yul\":8824:8828   */\n      0xff\n        /* \"#utility.yul\":8817:8822   */\n      dup3\n        /* \"#utility.yul\":8813:8829   */\n      and\n        /* \"#utility.yul\":8802:8829   */\n      swap1\n      pop\n        /* \"#utility.yul\":8749:8835   */\n      swap2\n      swap1\n      pop\n      jump\t// out\n        /* \"#utility.yul\":8841:9148   */\n    tag_181:\n        /* \"#utility.yul\":8909:8910   */\n      0x00\n        /* \"#utility.yul\":8919:9032   */\n    tag_253:\n        /* \"#utility.yul\":8933:8939   */\n      dup4\n        /* \"#utility.yul\":8930:8931   */\n      dup2\n        /* \"#utility.yul\":8927:8940   */\n      lt\n        /* \"#utility.yul\":8919:9032   */\n      iszero\n      tag_255\n      jumpi\n        /* \"#utility.yul\":9018:9019   */\n      dup1\n        /* \"#utility.yul\":9013:9016   */\n      dup3\n        /* \"#utility.yul\":9009:9020   */\n      add\n        /* \"#utility.yul\":9003:9021   */\n      mload\n        /* \"#utility.yul\":8999:9000   */\n      dup2\n        /* \"#utility.yul\":8994:8997   */\n      dup5\n        /* \"#utility.yul\":8990:9001   */\n      add\n        /* \"#utility.yul\":8983:9022   */\n      mstore\n        /* \"#utility.yul\":8955:8957   */\n      0x20\n        /* \"#utility.yul\":8952:8953   */\n      dup2\n        /* \"#utility.yul\":8948:8958   */\n      add\n        /* \"#utility.yul\":8943:8958   */\n      swap1\n      pop\n        /* \"#utility.yul\":8919:9032   */\n      jump(tag_253)\n    tag_255:\n        /* \"#utility.yul\":9050:9056   */\n      dup4\n        /* \"#utility.yul\":9047:9048   */\n      dup2\n        /* \"#utility.yul\":9044:9057   */\n      gt\n        /* \"#utility.yul\":9041:9142   */\n      iszero\n      tag_256\n      jumpi\n        /* \"#utility.yul\":9130:9131   */\n      0x00\n        /* \"#utility.yul\":9121:9127   */\n      dup5\n        /* \"#utility.yul\":9116:9119   */\n      dup5\n        /* \"#utility.yul\":9112:9128   */\n      add\n        /* \"#utility.yul\":9105:9132   */\n      mstore\n        /* \"#utility.yul\":9041:9142   */\n    tag_256:\n        /* \"#utility.yul\":8890:9148   */\n      pop\n        /* \"#utility.yul\":8841:9148   */\n      pop\n      pop\n      pop\n      jump\t// out\n        /* \"#utility.yul\":9154:9474   */\n    tag_91:\n        /* \"#utility.yul\":9198:9204   */\n      0x00\n        /* \"#utility.yul\":9235:9236   */\n      0x02\n        /* \"#utility.yul\":9229:9233   */\n      dup3\n        /* \"#utility.yul\":9225:9237   */\n      div\n        /* \"#utility.yul\":9215:9237   */\n      swap1\n      pop\n        /* \"#utility.yul\":9282:9283   */\n      0x01\n        /* \"#utility.yul\":9276:9280   */\n      dup3\n        /* \"#utility.yul\":9272:9284   */\n      and\n        /* \"#utility.yul\":9303:9321   */\n      dup1\n        /* \"#utility.yul\":9293:9374   */\n      tag_258\n      jumpi\n        /* \"#utility.yul\":9359:9363   */\n      0x7f\n        /* \"#utility.yul\":9351:9357   */\n      dup3\n        /* \"#utility.yul\":9347:9364   */\n      and\n        /* \"#utility.yul\":9337:9364   */\n      swap2\n      pop\n        /* \"#utility.yul\":9293:9374   */\n    tag_258:\n        /* \"#utility.yul\":9421:9423   */\n      0x20\n        /* \"#utility.yul\":9413:9419   */\n      dup3\n        /* \"#utility.yul\":9410:9424   */\n      lt\n        /* \"#utility.yul\":9390:9408   */\n      dup2\n        /* \"#utility.yul\":9387:9425   */\n      eq\n        /* \"#utility.yul\":9384:9468   */\n      iszero\n      tag_259\n      jumpi\n        /* \"#utility.yul\":9440:9458   */\n      tag_260\n      tag_261\n      jump\t// in\n    tag_260:\n        /* \"#utility.yul\":9384:9468   */\n    tag_259:\n        /* \"#utility.yul\":9205:9474   */\n      pop\n        /* \"#utility.yul\":9154:9474   */\n      swap2\n      swap1\n      pop\n      jump\t// out\n        /* \"#utility.yul\":9480:9660   */\n    tag_239:\n        /* \"#utility.yul\":9528:9605   */\n      0x4e487b7100000000000000000000000000000000000000000000000000000000\n        /* \"#utility.yul\":9525:9526   */\n      0x00\n        /* \"#utility.yul\":9518:9606   */\n      mstore\n        /* \"#utility.yul\":9625:9629   */\n      0x11\n        /* \"#utility.yul\":9622:9623   */\n      0x04\n        /* \"#utility.yul\":9615:9630   */\n      mstore\n        /* \"#utility.yul\":9649:9653   */\n      0x24\n        /* \"#utility.yul\":9646:9647   */\n      0x00\n        /* \"#utility.yul\":9639:9654   */\n      revert\n        /* \"#utility.yul\":9666:9846   */\n    tag_261:\n        /* \"#utility.yul\":9714:9791   */\n      0x4e487b7100000000000000000000000000000000000000000000000000000000\n        /* \"#utility.yul\":9711:9712   */\n      0x00\n        /* \"#utility.yul\":9704:9792   */\n      mstore\n        /* \"#utility.yul\":9811:9815   */\n      0x22\n        /* \"#utility.yul\":9808:9809   */\n      0x04\n        /* \"#utility.yul\":9801:9816   */\n      mstore\n        /* \"#utility.yul\":9835:9839   */\n      0x24\n        /* \"#utility.yul\":9832:9833   */\n      0x00\n        /* \"#utility.yul\":9825:9840   */\n      revert\n        /* \"#utility.yul\":9975:10092   */\n    tag_148:\n        /* \"#utility.yul\":10084:10085   */\n      0x00\n        /* \"#utility.yul\":10081:10082   */\n      dup1\n        /* \"#utility.yul\":10074:10086   */\n      revert\n        /* \"#utility.yul\":10098:10200   */\n    tag_183:\n        /* \"#utility.yul\":10139:10145   */\n      0x00\n        /* \"#utility.yul\":10190:10192   */\n      0x1f\n        /* \"#utility.yul\":10186:10193   */\n      not\n        /* \"#utility.yul\":10181:10183   */\n      0x1f\n        /* \"#utility.yul\":10174:10179   */\n      dup4\n        /* \"#utility.yul\":10170:10184   */\n      add\n        /* \"#utility.yul\":10166:10194   */\n      and\n        /* \"#utility.yul\":10156:10194   */\n      swap1\n      pop\n        /* \"#utility.yul\":10098:10200   */\n      swap2\n      swap1\n      pop\n      jump\t// out\n        /* \"#utility.yul\":10206:10374   */\n    tag_188:\n        /* \"#utility.yul\":10346:10366   */\n      0x75736572206973206261636b6c69737465640000000000000000000000000000\n        /* \"#utility.yul\":10342:10343   */\n      0x00\n        /* \"#utility.yul\":10334:10340   */\n      dup3\n        /* \"#utility.yul\":10330:10344   */\n      add\n        /* \"#utility.yul\":10323:10367   */\n      mstore\n        /* \"#utility.yul\":10206:10374   */\n      pop\n      jump\t// out\n        /* \"#utility.yul\":10380:10541   */\n    tag_193:\n        /* \"#utility.yul\":10520:10533   */\n      0x77686974656c6973746564000000000000000000000000000000000000000000\n        /* \"#utility.yul\":10516:10517   */\n      0x00\n        /* \"#utility.yul\":10508:10514   */\n      dup3\n        /* \"#utility.yul\":10504:10518   */\n      add\n        /* \"#utility.yul\":10497:10534   */\n      mstore\n        /* \"#utility.yul\":10380:10541   */\n      pop\n      jump\t// out\n        /* \"#utility.yul\":10547:10712   */\n    tag_198:\n        /* \"#utility.yul\":10687:10704   */\n      0x73686f756c64206265206f776e65720000000000000000000000000000000000\n        /* \"#utility.yul\":10683:10684   */\n      0x00\n        /* \"#utility.yul\":10675:10681   */\n      dup3\n        /* \"#utility.yul\":10671:10685   */\n      add\n        /* \"#utility.yul\":10664:10705   */\n      mstore\n        /* \"#utility.yul\":10547:10712   */\n      pop\n      jump\t// out\n        /* \"#utility.yul\":10718:10879   */\n    tag_203:\n        /* \"#utility.yul\":10858:10871   */\n      0x626c61636b6c6973746564000000000000000000000000000000000000000000\n        /* \"#utility.yul\":10854:10855   */\n      0x00\n        /* \"#utility.yul\":10846:10852   */\n      dup3\n        /* \"#utility.yul\":10842:10856   */\n      add\n        /* \"#utility.yul\":10835:10872   */\n      mstore\n        /* \"#utility.yul\":10718:10879   */\n      pop\n      jump\t// out\n        /* \"#utility.yul\":10885:11007   */\n    tag_140:\n        /* \"#utility.yul\":10958:10982   */\n      tag_273\n        /* \"#utility.yul\":10976:10981   */\n      dup2\n        /* \"#utility.yul\":10958:10982   */\n      tag_169\n      jump\t// in\n    tag_273:\n        /* \"#utility.yul\":10951:10956   */\n      dup2\n        /* \"#utility.yul\":10948:10983   */\n      eq\n        /* \"#utility.yul\":10938:11001   */\n      tag_274\n      jumpi\n        /* \"#utility.yul\":10997:10998   */\n      0x00\n        /* \"#utility.yul\":10994:10995   */\n      dup1\n        /* \"#utility.yul\":10987:10999   */\n      revert\n        /* \"#utility.yul\":10938:11001   */\n    tag_274:\n        /* \"#utility.yul\":10885:11007   */\n      pop\n      jump\t// out\n        /* \"#utility.yul\":11013:11135   */\n    tag_144:\n        /* \"#utility.yul\":11086:11110   */\n      tag_276\n        /* \"#utility.yul\":11104:11109   */\n      dup2\n        /* \"#utility.yul\":11086:11110   */\n      tag_207\n      jump\t// in\n    tag_276:\n        /* \"#utility.yul\":11079:11084   */\n      dup2\n        /* \"#utility.yul\":11076:11111   */\n      eq\n        /* \"#utility.yul\":11066:11129   */\n      tag_277\n      jumpi\n        /* \"#utility.yul\":11125:11126   */\n      0x00\n        /* \"#utility.yul\":11122:11123   */\n      dup1\n        /* \"#utility.yul\":11115:11127   */\n      revert\n        /* \"#utility.yul\":11066:11129   */\n    tag_277:\n        /* \"#utility.yul\":11013:11135   */\n      pop\n      jump\t// out\n\n    auxdata: 0xa2646970667358221220b3399bec07b2161fa4d74520cbb3a665f3917ade521d12be098249a4d404223564736f6c63430008070033\n}\n",
				"bytecode": {
					"linkReferences": {},
					"object": "608060405269d3c21bcecceda100000060005533600160006101000a81548173ffffffffffffffffffffffffffffffffffffffff021916908373ffffffffffffffffffffffffffffffffffffffff1602179055506040518060400160405280600581526020017f547969796e00000000000000000000000000000000000000000000000000000081525060059080519060200190620000a09291906200011f565b506040518060400160405280600381526020017f545949000000000000000000000000000000000000000000000000000000000081525060069080519060200190620000ee9291906200011f565b506012600760006101000a81548160ff021916908360ff1602179055503480156200011857600080fd5b5062000234565b8280546200012d90620001cf565b90600052602060002090601f0160209004810192826200015157600085556200019d565b82601f106200016c57805160ff19168380011785556200019d565b828001600101855582156200019d579182015b828111156200019c5782518255916020019190600101906200017f565b5b509050620001ac9190620001b0565b5090565b5b80821115620001cb576000816000905550600101620001b1565b5090565b60006002820490506001821680620001e857607f821691505b60208210811415620001ff57620001fe62000205565b5b50919050565b7f4e487b7100000000000000000000000000000000000000000000000000000000600052602260045260246000fd5b61148b80620002446000396000f3fe608060405234801561001057600080fd5b506004361061010b5760003560e01c806376809ce3116100a2578063a9059cbb11610071578063a9059cbb146102aa578063dbac26e9146102da578063dd62ed3e1461030a578063e3d670d71461033a578063f9f92be41461036a5761010b565b806376809ce314610220578063775ad5271461023e5780638da5cb5b1461026e57806395d89b411461028c5761010b565b80631a895266116100de5780631a8952661461018657806323b872dd146101a257806342320732146101d257806370a08231146101f05761010b565b806306fdde0314610110578063095ea7b31461012e5780631249c58b1461015e57806318160ddd14610168575b600080fd5b610118610386565b60405161012591906110d7565b60405180910390f35b61014860048036038101906101439190610f60565b610414565b60405161015591906110bc565b60405180910390f35b610166610506565b005b6101706105e5565b60405161017d9190611179565b60405180910390f35b6101a0600480360381019061019b9190610ea0565b6105ee565b005b6101bc60048036038101906101b79190610f0d565b610765565b6040516101c991906110bc565b60405180910390f35b6101da610938565b6040516101e79190611179565b60405180910390f35b61020a60048036038101906102059190610ea0565b61093e565b6040516102179190611179565b60405180910390f35b610228610987565b6040516102359190611194565b60405180910390f35b61025860048036038101906102539190610ecd565b61099a565b6040516102659190611179565b60405180910390f35b6102766109bf565b60405161028391906110a1565b60405180910390f35b6102946109e5565b6040516102a191906110d7565b60405180910390f35b6102c460048036038101906102bf9190610f60565b610a73565b6040516102d191906110bc565b60405180910390f35b6102f460048036038101906102ef9190610ea0565b610c3f565b60405161030191906110bc565b60405180910390f35b610324600480360381019061031f9190610ecd565b610c5f565b6040516103319190611179565b60405180910390f35b610354600480360381019061034f9190610ea0565b610ce6565b6040516103619190611179565b60405180910390f35b610384600480360381019061037f9190610ea0565b610cfe565b005b60058054610393906112dd565b80601f01602080910402602001604051908101604052809291908181526020018280546103bf906112dd565b801561040c5780601f106103e15761010080835404028352916020019161040c565b820191906000526020600020905b8154815290600101906020018083116103ef57829003601f168201915b505050505081565b600081600360003373ffffffffffffffffffffffffffffffffffffffff1673ffffffffffffffffffffffffffffffffffffffff16815260200190815260200160002060008573ffffffffffffffffffffffffffffffffffffffff1673ffffffffffffffffffffffffffffffffffffffff168152602001908152602001600020819055508273ffffffffffffffffffffffffffffffffffffffff163373ffffffffffffffffffffffffffffffffffffffff167f6e11fb1b7f119e3f2fa29896ef5fdf8b8a2d0d4df6fe90ba8668e7d8b2ffa25e846040516104f49190611179565b60405180910390a36001905092915050565b3373ffffffffffffffffffffffffffffffffffffffff16600160009054906101000a900473ffffffffffffffffffffffffffffffffffffffff1673ffffffffffffffffffffffffffffffffffffffff1614610596576040517f08c379a000000000000000000000000000000000000000000000000000000000815260040161058d90611139565b60405180910390fd5b681b1ae4d6e2ef500000600260003373ffffffffffffffffffffffffffffffffffffffff1673ffffffffffffffffffffffffffffffffffffffff16815260200190815260200160002081905550565b60008054905090565b3373ffffffffffffffffffffffffffffffffffffffff16600160009054906101000a900473ffffffffffffffffffffffffffffffffffffffff1673ffffffffffffffffffffffffffffffffffffffff161461067e576040517f08c379a000000000000000000000000000000000000000000000000000000000815260040161067590611139565b60405180910390fd5b600460008273ffffffffffffffffffffffffffffffffffffffff1673ffffffffffffffffffffffffffffffffffffffff16815260200190815260200160002060009054906101000a900460ff1661070a576040517f08c379a000000000000000000000000000000000000000000000000000000000815260040161070190611119565b60405180910390fd5b6000600460008373ffffffffffffffffffffffffffffffffffffffff1673ffffffffffffffffffffffffffffffffffffffff16815260200190815260200160002060006101000a81548160ff02191690831515021790555050565b600081600360008673ffffffffffffffffffffffffffffffffffffffff1673ffffffffffffffffffffffffffffffffffffffff16815260200190815260200160002060008573ffffffffffffffffffffffffffffffffffffffff1673ffffffffffffffffffffffffffffffffffffffff16815260200190815260200160002060008282546107f39190611221565b9250508190555081600260008673ffffffffffffffffffffffffffffffffffffffff1673ffffffffffffffffffffffffffffffffffffffff16815260200190815260200160002060008282546108499190611221565b9250508190555081600260008573ffffffffffffffffffffffffffffffffffffffff1673ffffffffffffffffffffffffffffffffffffffff168152602001908152602001600020600082825461089f91906111cb565b925050819055508273ffffffffffffffffffffffffffffffffffffffff16600160009054906101000a900473ffffffffffffffffffffffffffffffffffffffff1673ffffffffffffffffffffffffffffffffffffffff167fddf252ad1be2c89b69c2b068fc378daa952ba7f163c4a11628f55a4df523b3ef846040516109259190611179565b60405180910390a3600190509392505050565b60005481565b6000600260008373ffffffffffffffffffffffffffffffffffffffff1673ffffffffffffffffffffffffffffffffffffffff168152602001908152602001600020549050919050565b600760009054906101000a900460ff1681565b6003602052816000526040600020602052806000526040600020600091509150505481565b600160009054906101000a900473ffffffffffffffffffffffffffffffffffffffff1681565b600680546109f2906112dd565b80601f0160208091040260200160405190810160405280929190818152602001828054610a1e906112dd565b8015610a6b5780601f10610a4057610100808354040283529160200191610a6b565b820191906000526020600020905b815481529060010190602001808311610a4e57829003601f168201915b505050505081565b6000600460008473ffffffffffffffffffffffffffffffffffffffff1673ffffffffffffffffffffffffffffffffffffffff16815260200190815260200160002060009054906101000a900460ff1615610b02576040517f08c379a0000000000000000000000000000000000000000000000000000000008152600401610af9906110f9565b60405180910390fd5b8160026000600160009054906101000a900473ffffffffffffffffffffffffffffffffffffffff1673ffffffffffffffffffffffffffffffffffffffff1673ffffffffffffffffffffffffffffffffffffffff1681526020019081526020016000206000828254610b739190611221565b9250508190555081600260008573ffffffffffffffffffffffffffffffffffffffff1673ffffffffffffffffffffffffffffffffffffffff1681526020019081526020016000206000828254610bc991906111cb565b925050819055508273ffffffffffffffffffffffffffffffffffffffff163373ffffffffffffffffffffffffffffffffffffffff167fddf252ad1be2c89b69c2b068fc378daa952ba7f163c4a11628f55a4df523b3ef84604051610c2d9190611179565b60405180910390a36001905092915050565b60046020528060005260406000206000915054906101000a900460ff1681565b6000600360008473ffffffffffffffffffffffffffffffffffffffff1673ffffffffffffffffffffffffffffffffffffffff16815260200190815260200160002060008373ffffffffffffffffffffffffffffffffffffffff1673ffffffffffffffffffffffffffffffffffffffff16815260200190815260200160002054905092915050565b60026020528060005260406000206000915090505481565b3373ffffffffffffffffffffffffffffffffffffffff16600160009054906101000a900473ffffffffffffffffffffffffffffffffffffffff1673ffffffffffffffffffffffffffffffffffffffff1614610d8e576040517f08c379a0000000000000000000000000000000000000000000000000000000008152600401610d8590611139565b60405180910390fd5b600460008273ffffffffffffffffffffffffffffffffffffffff1673ffffffffffffffffffffffffffffffffffffffff16815260200190815260200160002060009054906101000a900460ff1615610e1b576040517f08c379a0000000000000000000000000000000000000000000000000000000008152600401610e1290611159565b60405180910390fd5b6001600460008373ffffffffffffffffffffffffffffffffffffffff1673ffffffffffffffffffffffffffffffffffffffff16815260200190815260200160002060006101000a81548160ff02191690831515021790555050565b600081359050610e8581611427565b92915050565b600081359050610e9a8161143e565b92915050565b600060208284031215610eb657610eb561136d565b5b6000610ec484828501610e76565b91505092915050565b60008060408385031215610ee457610ee361136d565b5b6000610ef285828601610e76565b9250506020610f0385828601610e76565b9150509250929050565b600080600060608486031215610f2657610f2561136d565b5b6000610f3486828701610e76565b9350506020610f4586828701610e76565b9250506040610f5686828701610e8b565b9150509250925092565b60008060408385031215610f7757610f7661136d565b5b6000610f8585828601610e76565b9250506020610f9685828601610e8b565b9150509250929050565b610fa981611255565b82525050565b610fb881611267565b82525050565b6000610fc9826111af565b610fd381856111ba565b9350610fe38185602086016112aa565b610fec81611372565b840191505092915050565b60006110046012836111ba565b915061100f82611383565b602082019050919050565b6000611027600b836111ba565b9150611032826113ac565b602082019050919050565b600061104a600f836111ba565b9150611055826113d5565b602082019050919050565b600061106d600b836111ba565b9150611078826113fe565b602082019050919050565b61108c81611293565b82525050565b61109b8161129d565b82525050565b60006020820190506110b66000830184610fa0565b92915050565b60006020820190506110d16000830184610faf565b92915050565b600060208201905081810360008301526110f18184610fbe565b905092915050565b6000602082019050818103600083015261111281610ff7565b9050919050565b600060208201905081810360008301526111328161101a565b9050919050565b600060208201905081810360008301526111528161103d565b9050919050565b6000602082019050818103600083015261117281611060565b9050919050565b600060208201905061118e6000830184611083565b92915050565b60006020820190506111a96000830184611092565b92915050565b600081519050919050565b600082825260208201905092915050565b60006111d682611293565b91506111e183611293565b9250827fffffffffffffffffffffffffffffffffffffffffffffffffffffffffffffffff038211156112165761121561130f565b5b828201905092915050565b600061122c82611293565b915061123783611293565b92508282101561124a5761124961130f565b5b828203905092915050565b600061126082611273565b9050919050565b60008115159050919050565b600073ffffffffffffffffffffffffffffffffffffffff82169050919050565b6000819050919050565b600060ff82169050919050565b60005b838110156112c85780820151818401526020810190506112ad565b838111156112d7576000848401525b50505050565b600060028204905060018216806112f557607f821691505b602082108114156113095761130861133e565b5b50919050565b7f4e487b7100000000000000000000000000000000000000000000000000000000600052601160045260246000fd5b7f4e487b7100000000000000000000000000000000000000000000000000000000600052602260045260246000fd5b600080fd5b6000601f19601f8301169050919050565b7f75736572206973206261636b6c69737465640000000000000000000000000000600082015250565b7f77686974656c6973746564000000000000000000000000000000000000000000600082015250565b7f73686f756c64206265206f776e65720000000000000000000000000000000000600082015250565b7f626c61636b6c6973746564000000000000000000000000000000000000000000600082015250565b61143081611255565b811461143b57600080fd5b50565b61144781611293565b811461145257600080fd5b5056fea2646970667358221220b3399bec07b2161fa4d74520cbb3a665f3917ade521d12be098249a4d404223564736f6c63430008070033",
					"opcodes": "PUSH1 0x80 PUSH1 0x40 MSTORE PUSH10 0xD3C21BCECCEDA1000000 PUSH1 0x0 SSTORE CALLER PUSH1 0x1 PUSH1 0x0 PUSH2 0x100 EXP DUP2 SLOAD DUP2 PUSH20 0xFFFFFFFFFFFFFFFFFFFFFFFFFFFFFFFFFFFFFFFF MUL NOT AND SWAP1 DUP4 PUSH20 0xFFFFFFFFFFFFFFFFFFFFFFFFFFFFFFFFFFFFFFFF AND MUL OR SWAP1 SSTORE POP PUSH1 0x40 MLOAD DUP1 PUSH1 0x40 ADD PUSH1 0x40 MSTORE DUP1 PUSH1 0x5 DUP2 MSTORE PUSH1 0x20 ADD PUSH32 0x547969796E000000000000000000000000000000000000000000000000000000 DUP2 MSTORE POP PUSH1 0x5 SWAP1 DUP1 MLOAD SWAP1 PUSH1 0x20 ADD SWAP1 PUSH3 0xA0 SWAP3 SWAP2 SWAP1 PUSH3 0x11F JUMP JUMPDEST POP PUSH1 0x40 MLOAD DUP1 PUSH1 0x40 ADD PUSH1 0x40 MSTORE DUP1 PUSH1 0x3 DUP2 MSTORE PUSH1 0x20 ADD PUSH32 0x5459490000000000000000000000000000000000000000000000000000000000 DUP2 MSTORE POP PUSH1 0x6 SWAP1 DUP1 MLOAD SWAP1 PUSH1 0x20 ADD SWAP1 PUSH3 0xEE SWAP3 SWAP2 SWAP1 PUSH3 0x11F JUMP JUMPDEST POP PUSH1 0x12 PUSH1 0x7 PUSH1 0x0 PUSH2 0x100 EXP DUP2 SLOAD DUP2 PUSH1 0xFF MUL NOT AND SWAP1 DUP4 PUSH1 0xFF AND MUL OR SWAP1 SSTORE POP CALLVALUE DUP1 ISZERO PUSH3 0x118 JUMPI PUSH1 0x0 DUP1 REVERT JUMPDEST POP PUSH3 0x234 JUMP JUMPDEST DUP3 DUP1 SLOAD PUSH3 0x12D SWAP1 PUSH3 0x1CF JUMP JUMPDEST SWAP1 PUSH1 0x0 MSTORE PUSH1 0x20 PUSH1 0x0 KECCAK256 SWAP1 PUSH1 0x1F ADD PUSH1 0x20 SWAP1 DIV DUP2 ADD SWAP3 DUP3 PUSH3 0x151 JUMPI PUSH1 0x0 DUP6 SSTORE PUSH3 0x19D JUMP JUMPDEST DUP3 PUSH1 0x1F LT PUSH3 0x16C JUMPI DUP1 MLOAD PUSH1 0xFF NOT AND DUP4 DUP1 ADD OR DUP6 SSTORE PUSH3 0x19D JUMP JUMPDEST DUP3 DUP1 ADD PUSH1 0x1 ADD DUP6 SSTORE DUP3 ISZERO PUSH3 0x19D JUMPI SWAP2 DUP3 ADD JUMPDEST DUP3 DUP2 GT ISZERO PUSH3 0x19C JUMPI DUP3 MLOAD DUP3 SSTORE SWAP2 PUSH1 0x20 ADD SWAP2 SWAP1 PUSH1 0x1 ADD SWAP1 PUSH3 0x17F JUMP JUMPDEST JUMPDEST POP SWAP1 POP PUSH3 0x1AC SWAP2 SWAP1 PUSH3 0x1B0 JUMP JUMPDEST POP SWAP1 JUMP JUMPDEST JUMPDEST DUP1 DUP3 GT ISZERO PUSH3 0x1CB JUMPI PUSH1 0x0 DUP2 PUSH1 0x0 SWAP1 SSTORE POP PUSH1 0x1 ADD PUSH3 0x1B1 JUMP JUMPDEST POP SWAP1 JUMP JUMPDEST PUSH1 0x0 PUSH1 0x2 DUP3 DIV SWAP1 POP PUSH1 0x1 DUP3 AND DUP1 PUSH3 0x1E8 JUMPI PUSH1 0x7F DUP3 AND SWAP2 POP JUMPDEST PUSH1 0x20 DUP3 LT DUP2 EQ ISZERO PUSH3 0x1FF JUMPI PUSH3 0x1FE PUSH3 0x205 JUMP JUMPDEST JUMPDEST POP SWAP2 SWAP1 POP JUMP JUMPDEST PUSH32 0x4E487B7100000000000000000000000000000000000000000000000000000000 PUSH1 0x0 MSTORE PUSH1 0x22 PUSH1 0x4 MSTORE PUSH1 0x24 PUSH1 0x0 REVERT JUMPDEST PUSH2 0x148B DUP1 PUSH3 0x244 PUSH1 0x0 CODECOPY PUSH1 0x0 RETURN INVALID PUSH1 0x80 PUSH1 0x40 MSTORE CALLVALUE DUP1 ISZERO PUSH2 0x10 JUMPI PUSH1 0x0 DUP1 REVERT JUMPDEST POP PUSH1 0x4 CALLDATASIZE LT PUSH2 0x10B JUMPI PUSH1 0x0 CALLDATALOAD PUSH1 0xE0 SHR DUP1 PUSH4 0x76809CE3 GT PUSH2 0xA2 JUMPI DUP1 PUSH4 0xA9059CBB GT PUSH2 0x71 JUMPI DUP1 PUSH4 0xA9059CBB EQ PUSH2 0x2AA JUMPI DUP1 PUSH4 0xDBAC26E9 EQ PUSH2 0x2DA JUMPI DUP1 PUSH4 0xDD62ED3E EQ PUSH2 0x30A JUMPI DUP1 PUSH4 0xE3D670D7 EQ PUSH2 0x33A JUMPI DUP1 PUSH4 0xF9F92BE4 EQ PUSH2 0x36A JUMPI PUSH2 0x10B JUMP JUMPDEST DUP1 PUSH4 0x76809CE3 EQ PUSH2 0x220 JUMPI DUP1 PUSH4 0x775AD527 EQ PUSH2 0x23E JUMPI DUP1 PUSH4 0x8DA5CB5B EQ PUSH2 0x26E JUMPI DUP1 PUSH4 0x95D89B41 EQ PUSH2 0x28C JUMPI PUSH2 0x10B JUMP JUMPDEST DUP1 PUSH4 0x1A895266 GT PUSH2 0xDE JUMPI DUP1 PUSH4 0x1A895266 EQ PUSH2 0x186 JUMPI DUP1 PUSH4 0x23B872DD EQ PUSH2 0x1A2 JUMPI DUP1 PUSH4 0x42320732 EQ PUSH2 0x1D2 JUMPI DUP1 PUSH4 0x70A08231 EQ PUSH2 0x1F0 JUMPI PUSH2 0x10B JUMP JUMPDEST DUP1 PUSH4 0x6FDDE03 EQ PUSH2 0x110 JUMPI DUP1 PUSH4 0x95EA7B3 EQ PUSH2 0x12E JUMPI DUP1 PUSH4 0x1249C58B EQ PUSH2 0x15E JUMPI DUP1 PUSH4 0x18160DDD EQ PUSH2 0x168 JUMPI JUMPDEST PUSH1 0x0 DUP1 REVERT JUMPDEST PUSH2 0x118 PUSH2 0x386 JUMP JUMPDEST PUSH1 0x40 MLOAD PUSH2 0x125 SWAP2 SWAP1 PUSH2 0x10D7 JUMP JUMPDEST PUSH1 0x40 MLOAD DUP1 SWAP2 SUB SWAP1 RETURN JUMPDEST PUSH2 0x148 PUSH1 0x4 DUP1 CALLDATASIZE SUB DUP2 ADD SWAP1 PUSH2 0x143 SWAP2 SWAP1 PUSH2 0xF60 JUMP JUMPDEST PUSH2 0x414 JUMP JUMPDEST PUSH1 0x40 MLOAD PUSH2 0x155 SWAP2 SWAP1 PUSH2 0x10BC JUMP JUMPDEST PUSH1 0x40 MLOAD DUP1 SWAP2 SUB SWAP1 RETURN JUMPDEST PUSH2 0x166 PUSH2 0x506 JUMP JUMPDEST STOP JUMPDEST PUSH2 0x170 PUSH2 0x5E5 JUMP JUMPDEST PUSH1 0x40 MLOAD PUSH2 0x17D SWAP2 SWAP1 PUSH2 0x1179 JUMP JUMPDEST PUSH1 0x40 MLOAD DUP1 SWAP2 SUB SWAP1 RETURN JUMPDEST PUSH2 0x1A0 PUSH1 0x4 DUP1 CALLDATASIZE SUB DUP2 ADD SWAP1 PUSH2 0x19B SWAP2 SWAP1 PUSH2 0xEA0 JUMP JUMPDEST PUSH2 0x5EE JUMP JUMPDEST STOP JUMPDEST PUSH2 0x1BC PUSH1 0x4 DUP1 CALLDATASIZE SUB DUP2 ADD SWAP1 PUSH2 0x1B7 SWAP2 SWAP1 PUSH2 0xF0D JUMP JUMPDEST PUSH2 0x765 JUMP JUMPDEST PUSH1 0x40 MLOAD PUSH2 0x1C9 SWAP2 SWAP1 PUSH2 0x10BC JUMP JUMPDEST PUSH1 0x40 MLOAD DUP1 SWAP2 SUB SWAP1 RETURN JUMPDEST PUSH2 0x1DA PUSH2 0x938 JUMP JUMPDEST PUSH1 0x40 MLOAD PUSH2 0x1E7 SWAP2 SWAP1 PUSH2 0x1179 JUMP JUMPDEST PUSH1 0x40 MLOAD DUP1 SWAP2 SUB SWAP1 RETURN JUMPDEST PUSH2 0x20A PUSH1 0x4 DUP1 CALLDATASIZE SUB DUP2 ADD SWAP1 PUSH2 0x205 SWAP2 SWAP1 PUSH2 0xEA0 JUMP JUMPDEST PUSH2 0x93E JUMP JUMPDEST PUSH1 0x40 MLOAD PUSH2 0x217 SWAP2 SWAP1 PUSH2 0x1179 JUMP JUMPDEST PUSH1 0x40 MLOAD DUP1 SWAP2 SUB SWAP1 RETURN JUMPDEST PUSH2 0x228 PUSH2 0x987 JUMP JUMPDEST PUSH1 0x40 MLOAD PUSH2 0x235 SWAP2 SWAP1 PUSH2 0x1194 JUMP JUMPDEST PUSH1 0x40 MLOAD DUP1 SWAP2 SUB SWAP1 RETURN JUMPDEST PUSH2 0x258 PUSH1 0x4 DUP1 CALLDATASIZE SUB DUP2 ADD SWAP1 PUSH2 0x253 SWAP2 SWAP1 PUSH2 0xECD JUMP JUMPDEST PUSH2 0x99A JUMP JUMPDEST PUSH1 0x40 MLOAD PUSH2 0x265 SWAP2 SWAP1 PUSH2 0x1179 JUMP JUMPDEST PUSH1 0x40 MLOAD DUP1 SWAP2 SUB SWAP1 RETURN JUMPDEST PUSH2 0x276 PUSH2 0x9BF JUMP JUMPDEST PUSH1 0x40 MLOAD PUSH2 0x283 SWAP2 SWAP1 PUSH2 0x10A1 JUMP JUMPDEST PUSH1 0x40 MLOAD DUP1 SWAP2 SUB SWAP1 RETURN JUMPDEST PUSH2 0x294 PUSH2 0x9E5 JUMP JUMPDEST PUSH1 0x40 MLOAD PUSH2 0x2A1 SWAP2 SWAP1 PUSH2 0x10D7 JUMP JUMPDEST PUSH1 0x40 MLOAD DUP1 SWAP2 SUB SWAP1 RETURN JUMPDEST PUSH2 0x2C4 PUSH1 0x4 DUP1 CALLDATASIZE SUB DUP2 ADD SWAP1 PUSH2 0x2BF SWAP2 SWAP1 PUSH2 0xF60 JUMP JUMPDEST PUSH2 0xA73 JUMP JUMPDEST PUSH1 0x40 MLOAD PUSH2 0x2D1 SWAP2 SWAP1 PUSH2 0x10BC JUMP JUMPDEST PUSH1 0x40 MLOAD DUP1 SWAP2 SUB SWAP1 RETURN JUMPDEST PUSH2 0x2F4 PUSH1 0x4 DUP1 CALLDATASIZE SUB DUP2 ADD SWAP1 PUSH2 0x2EF SWAP2 SWAP1 PUSH2 0xEA0 JUMP JUMPDEST PUSH2 0xC3F JUMP JUMPDEST PUSH1 0x40 MLOAD PUSH2 0x301 SWAP2 SWAP1 PUSH2 0x10BC JUMP JUMPDEST PUSH1 0x40 MLOAD DUP1 SWAP2 SUB SWAP1 RETURN JUMPDEST PUSH2 0x324 PUSH1 0x4 DUP1 CALLDATASIZE SUB DUP2 ADD SWAP1 PUSH2 0x31F SWAP2 SWAP1 PUSH2 0xECD JUMP JUMPDEST PUSH2 0xC5F JUMP JUMPDEST PUSH1 0x40 MLOAD PUSH2 0x331 SWAP2 SWAP1 PUSH2 0x1179 JUMP JUMPDEST PUSH1 0x40 MLOAD DUP1 SWAP2 SUB SWAP1 RETURN JUMPDEST PUSH2 0x354 PUSH1 0x4 DUP1 CALLDATASIZE SUB DUP2 ADD SWAP1 PUSH2 0x34F SWAP2 SWAP1 PUSH2 0xEA0 JUMP JUMPDEST PUSH2 0xCE6 JUMP JUMPDEST PUSH1 0x40 MLOAD PUSH2 0x361 SWAP2 SWAP1 PUSH2 0x1179 JUMP JUMPDEST PUSH1 0x40 MLOAD DUP1 SWAP2 SUB SWAP1 RETURN JUMPDEST PUSH2 0x384 PUSH1 0x4 DUP1 CALLDATASIZE SUB DUP2 ADD SWAP1 PUSH2 0x37F SWAP2 SWAP1 PUSH2 0xEA0 JUMP JUMPDEST PUSH2 0xCFE JUMP JUMPDEST STOP JUMPDEST PUSH1 0x5 DUP1 SLOAD PUSH2 0x393 SWAP1 PUSH2 0x12DD JUMP JUMPDEST DUP1 PUSH1 0x1F ADD PUSH1 0x20 DUP1 SWAP2 DIV MUL PUSH1 0x20 ADD PUSH1 0x40 MLOAD SWAP1 DUP2 ADD PUSH1 0x40 MSTORE DUP1 SWAP3 SWAP2 SWAP1 DUP2 DUP2 MSTORE PUSH1 0x20 ADD DUP3 DUP1 SLOAD PUSH2 0x3BF SWAP1 PUSH2 0x12DD JUMP JUMPDEST DUP1 ISZERO PUSH2 0x40C JUMPI DUP1 PUSH1 0x1F LT PUSH2 0x3E1 JUMPI PUSH2 0x100 DUP1 DUP4 SLOAD DIV MUL DUP4 MSTORE SWAP2 PUSH1 0x20 ADD SWAP2 PUSH2 0x40C JUMP JUMPDEST DUP3 ADD SWAP2 SWAP1 PUSH1 0x0 MSTORE PUSH1 0x20 PUSH1 0x0 KECCAK256 SWAP1 JUMPDEST DUP2 SLOAD DUP2 MSTORE SWAP1 PUSH1 0x1 ADD SWAP1 PUSH1 0x20 ADD DUP1 DUP4 GT PUSH2 0x3EF JUMPI DUP3 SWAP1 SUB PUSH1 0x1F AND DUP3 ADD SWAP2 JUMPDEST POP POP POP POP POP DUP2 JUMP JUMPDEST PUSH1 0x0 DUP2 PUSH1 0x3 PUSH1 0x0 CALLER PUSH20 0xFFFFFFFFFFFFFFFFFFFFFFFFFFFFFFFFFFFFFFFF AND PUSH20 0xFFFFFFFFFFFFFFFFFFFFFFFFFFFFFFFFFFFFFFFF AND DUP2 MSTORE PUSH1 0x20 ADD SWAP1 DUP2 MSTORE PUSH1 0x20 ADD PUSH1 0x0 KECCAK256 PUSH1 0x0 DUP6 PUSH20 0xFFFFFFFFFFFFFFFFFFFFFFFFFFFFFFFFFFFFFFFF AND PUSH20 0xFFFFFFFFFFFFFFFFFFFFFFFFFFFFFFFFFFFFFFFF AND DUP2 MSTORE PUSH1 0x20 ADD SWAP1 DUP2 MSTORE PUSH1 0x20 ADD PUSH1 0x0 KECCAK256 DUP2 SWAP1 SSTORE POP DUP3 PUSH20 0xFFFFFFFFFFFFFFFFFFFFFFFFFFFFFFFFFFFFFFFF AND CALLER PUSH20 0xFFFFFFFFFFFFFFFFFFFFFFFFFFFFFFFFFFFFFFFF AND PUSH32 0x6E11FB1B7F119E3F2FA29896EF5FDF8B8A2D0D4DF6FE90BA8668E7D8B2FFA25E DUP5 PUSH1 0x40 MLOAD PUSH2 0x4F4 SWAP2 SWAP1 PUSH2 0x1179 JUMP JUMPDEST PUSH1 0x40 MLOAD DUP1 SWAP2 SUB SWAP1 LOG3 PUSH1 0x1 SWAP1 POP SWAP3 SWAP2 POP POP JUMP JUMPDEST CALLER PUSH20 0xFFFFFFFFFFFFFFFFFFFFFFFFFFFFFFFFFFFFFFFF AND PUSH1 0x1 PUSH1 0x0 SWAP1 SLOAD SWAP1 PUSH2 0x100 EXP SWAP1 DIV PUSH20 0xFFFFFFFFFFFFFFFFFFFFFFFFFFFFFFFFFFFFFFFF AND PUSH20 0xFFFFFFFFFFFFFFFFFFFFFFFFFFFFFFFFFFFFFFFF AND EQ PUSH2 0x596 JUMPI PUSH1 0x40 MLOAD PUSH32 0x8C379A000000000000000000000000000000000000000000000000000000000 DUP2 MSTORE PUSH1 0x4 ADD PUSH2 0x58D SWAP1 PUSH2 0x1139 JUMP JUMPDEST PUSH1 0x40 MLOAD DUP1 SWAP2 SUB SWAP1 REVERT JUMPDEST PUSH9 0x1B1AE4D6E2EF500000 PUSH1 0x2 PUSH1 0x0 CALLER PUSH20 0xFFFFFFFFFFFFFFFFFFFFFFFFFFFFFFFFFFFFFFFF AND PUSH20 0xFFFFFFFFFFFFFFFFFFFFFFFFFFFFFFFFFFFFFFFF AND DUP2 MSTORE PUSH1 0x20 ADD SWAP1 DUP2 MSTORE PUSH1 0x20 ADD PUSH1 0x0 KECCAK256 DUP2 SWAP1 SSTORE POP JUMP JUMPDEST PUSH1 0x0 DUP1 SLOAD SWAP1 POP SWAP1 JUMP JUMPDEST CALLER PUSH20 0xFFFFFFFFFFFFFFFFFFFFFFFFFFFFFFFFFFFFFFFF AND PUSH1 0x1 PUSH1 0x0 SWAP1 SLOAD SWAP1 PUSH2 0x100 EXP SWAP1 DIV PUSH20 0xFFFFFFFFFFFFFFFFFFFFFFFFFFFFFFFFFFFFFFFF AND PUSH20 0xFFFFFFFFFFFFFFFFFFFFFFFFFFFFFFFFFFFFFFFF AND EQ PUSH2 0x67E JUMPI PUSH1 0x40 MLOAD PUSH32 0x8C379A000000000000000000000000000000000000000000000000000000000 DUP2 MSTORE PUSH1 0x4 ADD PUSH2 0x675 SWAP1 PUSH2 0x1139 JUMP JUMPDEST PUSH1 0x40 MLOAD DUP1 SWAP2 SUB SWAP1 REVERT JUMPDEST PUSH1 0x4 PUSH1 0x0 DUP3 PUSH20 0xFFFFFFFFFFFFFFFFFFFFFFFFFFFFFFFFFFFFFFFF AND PUSH20 0xFFFFFFFFFFFFFFFFFFFFFFFFFFFFFFFFFFFFFFFF AND DUP2 MSTORE PUSH1 0x20 ADD SWAP1 DUP2 MSTORE PUSH1 0x20 ADD PUSH1 0x0 KECCAK256 PUSH1 0x0 SWAP1 SLOAD SWAP1 PUSH2 0x100 EXP SWAP1 DIV PUSH1 0xFF AND PUSH2 0x70A JUMPI PUSH1 0x40 MLOAD PUSH32 0x8C379A000000000000000000000000000000000000000000000000000000000 DUP2 MSTORE PUSH1 0x4 ADD PUSH2 0x701 SWAP1 PUSH2 0x1119 JUMP JUMPDEST PUSH1 0x40 MLOAD DUP1 SWAP2 SUB SWAP1 REVERT JUMPDEST PUSH1 0x0 PUSH1 0x4 PUSH1 0x0 DUP4 PUSH20 0xFFFFFFFFFFFFFFFFFFFFFFFFFFFFFFFFFFFFFFFF AND PUSH20 0xFFFFFFFFFFFFFFFFFFFFFFFFFFFFFFFFFFFFFFFF AND DUP2 MSTORE PUSH1 0x20 ADD SWAP1 DUP2 MSTORE PUSH1 0x20 ADD PUSH1 0x0 KECCAK256 PUSH1 0x0 PUSH2 0x100 EXP DUP2 SLOAD DUP2 PUSH1 0xFF MUL NOT AND SWAP1 DUP4 ISZERO ISZERO MUL OR SWAP1 SSTORE POP POP JUMP JUMPDEST PUSH1 0x0 DUP2 PUSH1 0x3 PUSH1 0x0 DUP7 PUSH20 0xFFFFFFFFFFFFFFFFFFFFFFFFFFFFFFFFFFFFFFFF AND PUSH20 0xFFFFFFFFFFFFFFFFFFFFFFFFFFFFFFFFFFFFFFFF AND DUP2 MSTORE PUSH1 0x20 ADD SWAP1 DUP2 MSTORE PUSH1 0x20 ADD PUSH1 0x0 KECCAK256 PUSH1 0x0 DUP6 PUSH20 0xFFFFFFFFFFFFFFFFFFFFFFFFFFFFFFFFFFFFFFFF AND PUSH20 0xFFFFFFFFFFFFFFFFFFFFFFFFFFFFFFFFFFFFFFFF AND DUP2 MSTORE PUSH1 0x20 ADD SWAP1 DUP2 MSTORE PUSH1 0x20 ADD PUSH1 0x0 KECCAK256 PUSH1 0x0 DUP3 DUP3 SLOAD PUSH2 0x7F3 SWAP2 SWAP1 PUSH2 0x1221 JUMP JUMPDEST SWAP3 POP POP DUP2 SWAP1 SSTORE POP DUP2 PUSH1 0x2 PUSH1 0x0 DUP7 PUSH20 0xFFFFFFFFFFFFFFFFFFFFFFFFFFFFFFFFFFFFFFFF AND PUSH20 0xFFFFFFFFFFFFFFFFFFFFFFFFFFFFFFFFFFFFFFFF AND DUP2 MSTORE PUSH1 0x20 ADD SWAP1 DUP2 MSTORE PUSH1 0x20 ADD PUSH1 0x0 KECCAK256 PUSH1 0x0 DUP3 DUP3 SLOAD PUSH2 0x849 SWAP2 SWAP1 PUSH2 0x1221 JUMP JUMPDEST SWAP3 POP POP DUP2 SWAP1 SSTORE POP DUP2 PUSH1 0x2 PUSH1 0x0 DUP6 PUSH20 0xFFFFFFFFFFFFFFFFFFFFFFFFFFFFFFFFFFFFFFFF AND PUSH20 0xFFFFFFFFFFFFFFFFFFFFFFFFFFFFFFFFFFFFFFFF AND DUP2 MSTORE PUSH1 0x20 ADD SWAP1 DUP2 MSTORE PUSH1 0x20 ADD PUSH1 0x0 KECCAK256 PUSH1 0x0 DUP3 DUP3 SLOAD PUSH2 0x89F SWAP2 SWAP1 PUSH2 0x11CB JUMP JUMPDEST SWAP3 POP POP DUP2 SWAP1 SSTORE POP DUP3 PUSH20 0xFFFFFFFFFFFFFFFFFFFFFFFFFFFFFFFFFFFFFFFF AND PUSH1 0x1 PUSH1 0x0 SWAP1 SLOAD SWAP1 PUSH2 0x100 EXP SWAP1 DIV PUSH20 0xFFFFFFFFFFFFFFFFFFFFFFFFFFFFFFFFFFFFFFFF AND PUSH20 0xFFFFFFFFFFFFFFFFFFFFFFFFFFFFFFFFFFFFFFFF AND PUSH32 0xDDF252AD1BE2C89B69C2B068FC378DAA952BA7F163C4A11628F55A4DF523B3EF DUP5 PUSH1 0x40 MLOAD PUSH2 0x925 SWAP2 SWAP1 PUSH2 0x1179 JUMP JUMPDEST PUSH1 0x40 MLOAD DUP1 SWAP2 SUB SWAP1 LOG3 PUSH1 0x1 SWAP1 POP SWAP4 SWAP3 POP POP POP JUMP JUMPDEST PUSH1 0x0 SLOAD DUP2 JUMP JUMPDEST PUSH1 0x0 PUSH1 0x2 PUSH1 0x0 DUP4 PUSH20 0xFFFFFFFFFFFFFFFFFFFFFFFFFFFFFFFFFFFFFFFF AND PUSH20 0xFFFFFFFFFFFFFFFFFFFFFFFFFFFFFFFFFFFFFFFF AND DUP2 MSTORE PUSH1 0x20 ADD SWAP1 DUP2 MSTORE PUSH1 0x20 ADD PUSH1 0x0 KECCAK256 SLOAD SWAP1 POP SWAP2 SWAP1 POP JUMP JUMPDEST PUSH1 0x7 PUSH1 0x0 SWAP1 SLOAD SWAP1 PUSH2 0x100 EXP SWAP1 DIV PUSH1 0xFF AND DUP2 JUMP JUMPDEST PUSH1 0x3 PUSH1 0x20 MSTORE DUP2 PUSH1 0x0 MSTORE PUSH1 0x40 PUSH1 0x0 KECCAK256 PUSH1 0x20 MSTORE DUP1 PUSH1 0x0 MSTORE PUSH1 0x40 PUSH1 0x0 KECCAK256 PUSH1 0x0 SWAP2 POP SWAP2 POP POP SLOAD DUP2 JUMP JUMPDEST PUSH1 0x1 PUSH1 0x0 SWAP1 SLOAD SWAP1 PUSH2 0x100 EXP SWAP1 DIV PUSH20 0xFFFFFFFFFFFFFFFFFFFFFFFFFFFFFFFFFFFFFFFF AND DUP2 JUMP JUMPDEST PUSH1 0x6 DUP1 SLOAD PUSH2 0x9F2 SWAP1 PUSH2 0x12DD JUMP JUMPDEST DUP1 PUSH1 0x1F ADD PUSH1 0x20 DUP1 SWAP2 DIV MUL PUSH1 0x20 ADD PUSH1 0x40 MLOAD SWAP1 DUP2 ADD PUSH1 0x40 MSTORE DUP1 SWAP3 SWAP2 SWAP1 DUP2 DUP2 MSTORE PUSH1 0x20 ADD DUP3 DUP1 SLOAD PUSH2 0xA1E SWAP1 PUSH2 0x12DD JUMP JUMPDEST DUP1 ISZERO PUSH2 0xA6B JUMPI DUP1 PUSH1 0x1F LT PUSH2 0xA40 JUMPI PUSH2 0x100 DUP1 DUP4 SLOAD DIV MUL DUP4 MSTORE SWAP2 PUSH1 0x20 ADD SWAP2 PUSH2 0xA6B JUMP JUMPDEST DUP3 ADD SWAP2 SWAP1 PUSH1 0x0 MSTORE PUSH1 0x20 PUSH1 0x0 KECCAK256 SWAP1 JUMPDEST DUP2 SLOAD DUP2 MSTORE SWAP1 PUSH1 0x1 ADD SWAP1 PUSH1 0x20 ADD DUP1 DUP4 GT PUSH2 0xA4E JUMPI DUP3 SWAP1 SUB PUSH1 0x1F AND DUP3 ADD SWAP2 JUMPDEST POP POP POP POP POP DUP2 JUMP JUMPDEST PUSH1 0x0 PUSH1 0x4 PUSH1 0x0 DUP5 PUSH20 0xFFFFFFFFFFFFFFFFFFFFFFFFFFFFFFFFFFFFFFFF AND PUSH20 0xFFFFFFFFFFFFFFFFFFFFFFFFFFFFFFFFFFFFFFFF AND DUP2 MSTORE PUSH1 0x20 ADD SWAP1 DUP2 MSTORE PUSH1 0x20 ADD PUSH1 0x0 KECCAK256 PUSH1 0x0 SWAP1 SLOAD SWAP1 PUSH2 0x100 EXP SWAP1 DIV PUSH1 0xFF AND ISZERO PUSH2 0xB02 JUMPI PUSH1 0x40 MLOAD PUSH32 0x8C379A000000000000000000000000000000000000000000000000000000000 DUP2 MSTORE PUSH1 0x4 ADD PUSH2 0xAF9 SWAP1 PUSH2 0x10F9 JUMP JUMPDEST PUSH1 0x40 MLOAD DUP1 SWAP2 SUB SWAP1 REVERT JUMPDEST DUP2 PUSH1 0x2 PUSH1 0x0 PUSH1 0x1 PUSH1 0x0 SWAP1 SLOAD SWAP1 PUSH2 0x100 EXP SWAP1 DIV PUSH20 0xFFFFFFFFFFFFFFFFFFFFFFFFFFFFFFFFFFFFFFFF AND PUSH20 0xFFFFFFFFFFFFFFFFFFFFFFFFFFFFFFFFFFFFFFFF AND PUSH20 0xFFFFFFFFFFFFFFFFFFFFFFFFFFFFFFFFFFFFFFFF AND DUP2 MSTORE PUSH1 0x20 ADD SWAP1 DUP2 MSTORE PUSH1 0x20 ADD PUSH1 0x0 KECCAK256 PUSH1 0x0 DUP3 DUP3 SLOAD PUSH2 0xB73 SWAP2 SWAP1 PUSH2 0x1221 JUMP JUMPDEST SWAP3 POP POP DUP2 SWAP1 SSTORE POP DUP2 PUSH1 0x2 PUSH1 0x0 DUP6 PUSH20 0xFFFFFFFFFFFFFFFFFFFFFFFFFFFFFFFFFFFFFFFF AND PUSH20 0xFFFFFFFFFFFFFFFFFFFFFFFFFFFFFFFFFFFFFFFF AND DUP2 MSTORE PUSH1 0x20 ADD SWAP1 DUP2 MSTORE PUSH1 0x20 ADD PUSH1 0x0 KECCAK256 PUSH1 0x0 DUP3 DUP3 SLOAD PUSH2 0xBC9 SWAP2 SWAP1 PUSH2 0x11CB JUMP JUMPDEST SWAP3 POP POP DUP2 SWAP1 SSTORE POP DUP3 PUSH20 0xFFFFFFFFFFFFFFFFFFFFFFFFFFFFFFFFFFFFFFFF AND CALLER PUSH20 0xFFFFFFFFFFFFFFFFFFFFFFFFFFFFFFFFFFFFFFFF AND PUSH32 0xDDF252AD1BE2C89B69C2B068FC378DAA952BA7F163C4A11628F55A4DF523B3EF DUP5 PUSH1 0x40 MLOAD PUSH2 0xC2D SWAP2 SWAP1 PUSH2 0x1179 JUMP JUMPDEST PUSH1 0x40 MLOAD DUP1 SWAP2 SUB SWAP1 LOG3 PUSH1 0x1 SWAP1 POP SWAP3 SWAP2 POP POP JUMP JUMPDEST PUSH1 0x4 PUSH1 0x20 MSTORE DUP1 PUSH1 0x0 MSTORE PUSH1 0x40 PUSH1 0x0 KECCAK256 PUSH1 0x0 SWAP2 POP SLOAD SWAP1 PUSH2 0x100 EXP SWAP1 DIV PUSH1 0xFF AND DUP2 JUMP JUMPDEST PUSH1 0x0 PUSH1 0x3 PUSH1 0x0 DUP5 PUSH20 0xFFFFFFFFFFFFFFFFFFFFFFFFFFFFFFFFFFFFFFFF AND PUSH20 0xFFFFFFFFFFFFFFFFFFFFFFFFFFFFFFFFFFFFFFFF AND DUP2 MSTORE PUSH1 0x20 ADD SWAP1 DUP2 MSTORE PUSH1 0x20 ADD PUSH1 0x0 KECCAK256 PUSH1 0x0 DUP4 PUSH20 0xFFFFFFFFFFFFFFFFFFFFFFFFFFFFFFFFFFFFFFFF AND PUSH20 0xFFFFFFFFFFFFFFFFFFFFFFFFFFFFFFFFFFFFFFFF AND DUP2 MSTORE PUSH1 0x20 ADD SWAP1 DUP2 MSTORE PUSH1 0x20 ADD PUSH1 0x0 KECCAK256 SLOAD SWAP1 POP SWAP3 SWAP2 POP POP JUMP JUMPDEST PUSH1 0x2 PUSH1 0x20 MSTORE DUP1 PUSH1 0x0 MSTORE PUSH1 0x40 PUSH1 0x0 KECCAK256 PUSH1 0x0 SWAP2 POP SWAP1 POP SLOAD DUP2 JUMP JUMPDEST CALLER PUSH20 0xFFFFFFFFFFFFFFFFFFFFFFFFFFFFFFFFFFFFFFFF AND PUSH1 0x1 PUSH1 0x0 SWAP1 SLOAD SWAP1 PUSH2 0x100 EXP SWAP1 DIV PUSH20 0xFFFFFFFFFFFFFFFFFFFFFFFFFFFFFFFFFFFFFFFF AND PUSH20 0xFFFFFFFFFFFFFFFFFFFFFFFFFFFFFFFFFFFFFFFF AND EQ PUSH2 0xD8E JUMPI PUSH1 0x40 MLOAD PUSH32 0x8C379A000000000000000000000000000000000000000000000000000000000 DUP2 MSTORE PUSH1 0x4 ADD PUSH2 0xD85 SWAP1 PUSH2 0x1139 JUMP JUMPDEST PUSH1 0x40 MLOAD DUP1 SWAP2 SUB SWAP1 REVERT JUMPDEST PUSH1 0x4 PUSH1 0x0 DUP3 PUSH20 0xFFFFFFFFFFFFFFFFFFFFFFFFFFFFFFFFFFFFFFFF AND PUSH20 0xFFFFFFFFFFFFFFFFFFFFFFFFFFFFFFFFFFFFFFFF AND DUP2 MSTORE PUSH1 0x20 ADD SWAP1 DUP2 MSTORE PUSH1 0x20 ADD PUSH1 0x0 KECCAK256 PUSH1 0x0 SWAP1 SLOAD SWAP1 PUSH2 0x100 EXP SWAP1 DIV PUSH1 0xFF AND ISZERO PUSH2 0xE1B JUMPI PUSH1 0x40 MLOAD PUSH32 0x8C379A000000000000000000000000000000000000000000000000000000000 DUP2 MSTORE PUSH1 0x4 ADD PUSH2 0xE12 SWAP1 PUSH2 0x1159 JUMP JUMPDEST PUSH1 0x40 MLOAD DUP1 SWAP2 SUB SWAP1 REVERT JUMPDEST PUSH1 0x1 PUSH1 0x4 PUSH1 0x0 DUP4 PUSH20 0xFFFFFFFFFFFFFFFFFFFFFFFFFFFFFFFFFFFFFFFF AND PUSH20 0xFFFFFFFFFFFFFFFFFFFFFFFFFFFFFFFFFFFFFFFF AND DUP2 MSTORE PUSH1 0x20 ADD SWAP1 DUP2 MSTORE PUSH1 0x20 ADD PUSH1 0x0 KECCAK256 PUSH1 0x0 PUSH2 0x100 EXP DUP2 SLOAD DUP2 PUSH1 0xFF MUL NOT AND SWAP1 DUP4 ISZERO ISZERO MUL OR SWAP1 SSTORE POP POP JUMP JUMPDEST PUSH1 0x0 DUP2 CALLDATALOAD SWAP1 POP PUSH2 0xE85 DUP2 PUSH2 0x1427 JUMP JUMPDEST SWAP3 SWAP2 POP POP JUMP JUMPDEST PUSH1 0x0 DUP2 CALLDATALOAD SWAP1 POP PUSH2 0xE9A DUP2 PUSH2 0x143E JUMP JUMPDEST SWAP3 SWAP2 POP POP JUMP JUMPDEST PUSH1 0x0 PUSH1 0x20 DUP3 DUP5 SUB SLT ISZERO PUSH2 0xEB6 JUMPI PUSH2 0xEB5 PUSH2 0x136D JUMP JUMPDEST JUMPDEST PUSH1 0x0 PUSH2 0xEC4 DUP5 DUP3 DUP6 ADD PUSH2 0xE76 JUMP JUMPDEST SWAP2 POP POP SWAP3 SWAP2 POP POP JUMP JUMPDEST PUSH1 0x0 DUP1 PUSH1 0x40 DUP4 DUP6 SUB SLT ISZERO PUSH2 0xEE4 JUMPI PUSH2 0xEE3 PUSH2 0x136D JUMP JUMPDEST JUMPDEST PUSH1 0x0 PUSH2 0xEF2 DUP6 DUP3 DUP7 ADD PUSH2 0xE76 JUMP JUMPDEST SWAP3 POP POP PUSH1 0x20 PUSH2 0xF03 DUP6 DUP3 DUP7 ADD PUSH2 0xE76 JUMP JUMPDEST SWAP2 POP POP SWAP3 POP SWAP3 SWAP1 POP JUMP JUMPDEST PUSH1 0x0 DUP1 PUSH1 0x0 PUSH1 0x60 DUP5 DUP7 SUB SLT ISZERO PUSH2 0xF26 JUMPI PUSH2 0xF25 PUSH2 0x136D JUMP JUMPDEST JUMPDEST PUSH1 0x0 PUSH2 0xF34 DUP7 DUP3 DUP8 ADD PUSH2 0xE76 JUMP JUMPDEST SWAP4 POP POP PUSH1 0x20 PUSH2 0xF45 DUP7 DUP3 DUP8 ADD PUSH2 0xE76 JUMP JUMPDEST SWAP3 POP POP PUSH1 0x40 PUSH2 0xF56 DUP7 DUP3 DUP8 ADD PUSH2 0xE8B JUMP JUMPDEST SWAP2 POP POP SWAP3 POP SWAP3 POP SWAP3 JUMP JUMPDEST PUSH1 0x0 DUP1 PUSH1 0x40 DUP4 DUP6 SUB SLT ISZERO PUSH2 0xF77 JUMPI PUSH2 0xF76 PUSH2 0x136D JUMP JUMPDEST JUMPDEST PUSH1 0x0 PUSH2 0xF85 DUP6 DUP3 DUP7 ADD PUSH2 0xE76 JUMP JUMPDEST SWAP3 POP POP PUSH1 0x20 PUSH2 0xF96 DUP6 DUP3 DUP7 ADD PUSH2 0xE8B JUMP JUMPDEST SWAP2 POP POP SWAP3 POP SWAP3 SWAP1 POP JUMP JUMPDEST PUSH2 0xFA9 DUP2 PUSH2 0x1255 JUMP JUMPDEST DUP3 MSTORE POP POP JUMP JUMPDEST PUSH2 0xFB8 DUP2 PUSH2 0x1267 JUMP JUMPDEST DUP3 MSTORE POP POP JUMP JUMPDEST PUSH1 0x0 PUSH2 0xFC9 DUP3 PUSH2 0x11AF JUMP JUMPDEST PUSH2 0xFD3 DUP2 DUP6 PUSH2 0x11BA JUMP JUMPDEST SWAP4 POP PUSH2 0xFE3 DUP2 DUP6 PUSH1 0x20 DUP7 ADD PUSH2 0x12AA JUMP JUMPDEST PUSH2 0xFEC DUP2 PUSH2 0x1372 JUMP JUMPDEST DUP5 ADD SWAP2 POP POP SWAP3 SWAP2 POP POP JUMP JUMPDEST PUSH1 0x0 PUSH2 0x1004 PUSH1 0x12 DUP4 PUSH2 0x11BA JUMP JUMPDEST SWAP2 POP PUSH2 0x100F DUP3 PUSH2 0x1383 JUMP JUMPDEST PUSH1 0x20 DUP3 ADD SWAP1 POP SWAP2 SWAP1 POP JUMP JUMPDEST PUSH1 0x0 PUSH2 0x1027 PUSH1 0xB DUP4 PUSH2 0x11BA JUMP JUMPDEST SWAP2 POP PUSH2 0x1032 DUP3 PUSH2 0x13AC JUMP JUMPDEST PUSH1 0x20 DUP3 ADD SWAP1 POP SWAP2 SWAP1 POP JUMP JUMPDEST PUSH1 0x0 PUSH2 0x104A PUSH1 0xF DUP4 PUSH2 0x11BA JUMP JUMPDEST SWAP2 POP PUSH2 0x1055 DUP3 PUSH2 0x13D5 JUMP JUMPDEST PUSH1 0x20 DUP3 ADD SWAP1 POP SWAP2 SWAP1 POP JUMP JUMPDEST PUSH1 0x0 PUSH2 0x106D PUSH1 0xB DUP4 PUSH2 0x11BA JUMP JUMPDEST SWAP2 POP PUSH2 0x1078 DUP3 PUSH2 0x13FE JUMP JUMPDEST PUSH1 0x20 DUP3 ADD SWAP1 POP SWAP2 SWAP1 POP JUMP JUMPDEST PUSH2 0x108C DUP2 PUSH2 0x1293 JUMP JUMPDEST DUP3 MSTORE POP POP JUMP JUMPDEST PUSH2 0x109B DUP2 PUSH2 0x129D JUMP JUMPDEST DUP3 MSTORE POP POP JUMP JUMPDEST PUSH1 0x0 PUSH1 0x20 DUP3 ADD SWAP1 POP PUSH2 0x10B6 PUSH1 0x0 DUP4 ADD DUP5 PUSH2 0xFA0 JUMP JUMPDEST SWAP3 SWAP2 POP POP JUMP JUMPDEST PUSH1 0x0 PUSH1 0x20 DUP3 ADD SWAP1 POP PUSH2 0x10D1 PUSH1 0x0 DUP4 ADD DUP5 PUSH2 0xFAF JUMP JUMPDEST SWAP3 SWAP2 POP POP JUMP JUMPDEST PUSH1 0x0 PUSH1 0x20 DUP3 ADD SWAP1 POP DUP2 DUP2 SUB PUSH1 0x0 DUP4 ADD MSTORE PUSH2 0x10F1 DUP2 DUP5 PUSH2 0xFBE JUMP JUMPDEST SWAP1 POP SWAP3 SWAP2 POP POP JUMP JUMPDEST PUSH1 0x0 PUSH1 0x20 DUP3 ADD SWAP1 POP DUP2 DUP2 SUB PUSH1 0x0 DUP4 ADD MSTORE PUSH2 0x1112 DUP2 PUSH2 0xFF7 JUMP JUMPDEST SWAP1 POP SWAP2 SWAP1 POP JUMP JUMPDEST PUSH1 0x0 PUSH1 0x20 DUP3 ADD SWAP1 POP DUP2 DUP2 SUB PUSH1 0x0 DUP4 ADD MSTORE PUSH2 0x1132 DUP2 PUSH2 0x101A JUMP JUMPDEST SWAP1 POP SWAP2 SWAP1 POP JUMP JUMPDEST PUSH1 0x0 PUSH1 0x20 DUP3 ADD SWAP1 POP DUP2 DUP2 SUB PUSH1 0x0 DUP4 ADD MSTORE PUSH2 0x1152 DUP2 PUSH2 0x103D JUMP JUMPDEST SWAP1 POP SWAP2 SWAP1 POP JUMP JUMPDEST PUSH1 0x0 PUSH1 0x20 DUP3 ADD SWAP1 POP DUP2 DUP2 SUB PUSH1 0x0 DUP4 ADD MSTORE PUSH2 0x1172 DUP2 PUSH2 0x1060 JUMP JUMPDEST SWAP1 POP SWAP2 SWAP1 POP JUMP JUMPDEST PUSH1 0x0 PUSH1 0x20 DUP3 ADD SWAP1 POP PUSH2 0x118E PUSH1 0x0 DUP4 ADD DUP5 PUSH2 0x1083 JUMP JUMPDEST SWAP3 SWAP2 POP POP JUMP JUMPDEST PUSH1 0x0 PUSH1 0x20 DUP3 ADD SWAP1 POP PUSH2 0x11A9 PUSH1 0x0 DUP4 ADD DUP5 PUSH2 0x1092 JUMP JUMPDEST SWAP3 SWAP2 POP POP JUMP JUMPDEST PUSH1 0x0 DUP2 MLOAD SWAP1 POP SWAP2 SWAP1 POP JUMP JUMPDEST PUSH1 0x0 DUP3 DUP3 MSTORE PUSH1 0x20 DUP3 ADD SWAP1 POP SWAP3 SWAP2 POP POP JUMP JUMPDEST PUSH1 0x0 PUSH2 0x11D6 DUP3 PUSH2 0x1293 JUMP JUMPDEST SWAP2 POP PUSH2 0x11E1 DUP4 PUSH2 0x1293 JUMP JUMPDEST SWAP3 POP DUP3 PUSH32 0xFFFFFFFFFFFFFFFFFFFFFFFFFFFFFFFFFFFFFFFFFFFFFFFFFFFFFFFFFFFFFFFF SUB DUP3 GT ISZERO PUSH2 0x1216 JUMPI PUSH2 0x1215 PUSH2 0x130F JUMP JUMPDEST JUMPDEST DUP3 DUP3 ADD SWAP1 POP SWAP3 SWAP2 POP POP JUMP JUMPDEST PUSH1 0x0 PUSH2 0x122C DUP3 PUSH2 0x1293 JUMP JUMPDEST SWAP2 POP PUSH2 0x1237 DUP4 PUSH2 0x1293 JUMP JUMPDEST SWAP3 POP DUP3 DUP3 LT ISZERO PUSH2 0x124A JUMPI PUSH2 0x1249 PUSH2 0x130F JUMP JUMPDEST JUMPDEST DUP3 DUP3 SUB SWAP1 POP SWAP3 SWAP2 POP POP JUMP JUMPDEST PUSH1 0x0 PUSH2 0x1260 DUP3 PUSH2 0x1273 JUMP JUMPDEST SWAP1 POP SWAP2 SWAP1 POP JUMP JUMPDEST PUSH1 0x0 DUP2 ISZERO ISZERO SWAP1 POP SWAP2 SWAP1 POP JUMP JUMPDEST PUSH1 0x0 PUSH20 0xFFFFFFFFFFFFFFFFFFFFFFFFFFFFFFFFFFFFFFFF DUP3 AND SWAP1 POP SWAP2 SWAP1 POP JUMP JUMPDEST PUSH1 0x0 DUP2 SWAP1 POP SWAP2 SWAP1 POP JUMP JUMPDEST PUSH1 0x0 PUSH1 0xFF DUP3 AND SWAP1 POP SWAP2 SWAP1 POP JUMP JUMPDEST PUSH1 0x0 JUMPDEST DUP4 DUP2 LT ISZERO PUSH2 0x12C8 JUMPI DUP1 DUP3 ADD MLOAD DUP2 DUP5 ADD MSTORE PUSH1 0x20 DUP2 ADD SWAP1 POP PUSH2 0x12AD JUMP JUMPDEST DUP4 DUP2 GT ISZERO PUSH2 0x12D7 JUMPI PUSH1 0x0 DUP5 DUP5 ADD MSTORE JUMPDEST POP POP POP POP JUMP JUMPDEST PUSH1 0x0 PUSH1 0x2 DUP3 DIV SWAP1 POP PUSH1 0x1 DUP3 AND DUP1 PUSH2 0x12F5 JUMPI PUSH1 0x7F DUP3 AND SWAP2 POP JUMPDEST PUSH1 0x20 DUP3 LT DUP2 EQ ISZERO PUSH2 0x1309 JUMPI PUSH2 0x1308 PUSH2 0x133E JUMP JUMPDEST JUMPDEST POP SWAP2 SWAP1 POP JUMP JUMPDEST PUSH32 0x4E487B7100000000000000000000000000000000000000000000000000000000 PUSH1 0x0 MSTORE PUSH1 0x11 PUSH1 0x4 MSTORE PUSH1 0x24 PUSH1 0x0 REVERT JUMPDEST PUSH32 0x4E487B7100000000000000000000000000000000000000000000000000000000 PUSH1 0x0 MSTORE PUSH1 0x22 PUSH1 0x4 MSTORE PUSH1 0x24 PUSH1 0x0 REVERT JUMPDEST PUSH1 0x0 DUP1 REVERT JUMPDEST PUSH1 0x0 PUSH1 0x1F NOT PUSH1 0x1F DUP4 ADD AND SWAP1 POP SWAP2 SWAP1 POP JUMP JUMPDEST PUSH32 0x75736572206973206261636B6C69737465640000000000000000000000000000 PUSH1 0x0 DUP3 ADD MSTORE POP JUMP JUMPDEST PUSH32 0x77686974656C6973746564000000000000000000000000000000000000000000 PUSH1 0x0 DUP3 ADD MSTORE POP JUMP JUMPDEST PUSH32 0x73686F756C64206265206F776E65720000000000000000000000000000000000 PUSH1 0x0 DUP3 ADD MSTORE POP JUMP JUMPDEST PUSH32 0x626C61636B6C6973746564000000000000000000000000000000000000000000 PUSH1 0x0 DUP3 ADD MSTORE POP JUMP JUMPDEST PUSH2 0x1430 DUP2 PUSH2 0x1255 JUMP JUMPDEST DUP2 EQ PUSH2 0x143B JUMPI PUSH1 0x0 DUP1 REVERT JUMPDEST POP JUMP JUMPDEST PUSH2 0x1447 DUP2 PUSH2 0x1293 JUMP JUMPDEST DUP2 EQ PUSH2 0x1452 JUMPI PUSH1 0x0 DUP1 REVERT JUMPDEST POP JUMP INVALID LOG2 PUSH5 0x6970667358 0x22 SLT KECCAK256 0xB3 CODECOPY SWAP12 0xEC SMOD 0xB2 AND 0x1F LOG4 0xD7 GASLIMIT KECCAK256 0xCB 0xB3 0xA6 PUSH6 0xF3917ADE521D SLT 0xBE MULMOD DUP3 0x49 LOG4 0xD4 DIV 0x22 CALLDATALOAD PUSH5 0x736F6C6343 STOP ADDMOD SMOD STOP CALLER "
				},
				"gasEstimates": {
					"creation": {
						"codeDepositCost": "1051800",
						"executionCost": "infinite",
						"totalCost": "infinite"
					},
					"external": {
						"allSupply()": "2496",
						"allow(address,address)": "infinite",
						"allowance(address,address)": "infinite",
						"approve(address,uint256)": "infinite",
						"balance(address)": "2902",
						"balanceOf(address)": "2930",
						"blacklist(address)": "29338",
						"blacklisted(address)": "2889",
						"decimal()": "2494",
						"mint()": "24585",
						"name()": "infinite",
						"owner()": "2581",
						"symbol()": "infinite",
						"totalSupply()": "2527",
						"transfer(address,uint256)": "infinite",
						"transferFrom(address,address,uint256)": "infinite",
						"unBlacklist(address)": "29248"
					}
				},
				"methodIdentifiers": {
					"allSupply()": "42320732",
					"allow(address,address)": "775ad527",
					"allowance(address,address)": "dd62ed3e",
					"approve(address,uint256)": "095ea7b3",
					"balance(address)": "e3d670d7",
					"balanceOf(address)": "70a08231",
					"blacklist(address)": "f9f92be4",
					"blacklisted(address)": "dbac26e9",
					"decimal()": "76809ce3",
					"mint()": "1249c58b",
					"name()": "06fdde03",
					"owner()": "8da5cb5b",
					"symbol()": "95d89b41",
					"totalSupply()": "18160ddd",
					"transfer(address,uint256)": "a9059cbb",
					"transferFrom(address,address,uint256)": "23b872dd",
					"unBlacklist(address)": "1a895266"
				}
			},
			"storageLayout": {
				"storage": [
					{
						"astId": 4,
						"contract": "contracts/tiyin.sol:Token",
						"label": "allSupply",
						"offset": 0,
						"slot": "0",
						"type": "t_uint256"
					},
					{
						"astId": 8,
						"contract": "contracts/tiyin.sol:Token",
						"label": "owner",
						"offset": 0,
						"slot": "1",
						"type": "t_address"
					},
					{
						"astId": 12,
						"contract": "contracts/tiyin.sol:Token",
						"label": "balance",
						"offset": 0,
						"slot": "2",
						"type": "t_mapping(t_address,t_uint256)"
					},
					{
						"astId": 18,
						"contract": "contracts/tiyin.sol:Token",
						"label": "allow",
						"offset": 0,
						"slot": "3",
						"type": "t_mapping(t_address,t_mapping(t_address,t_uint256))"
					},
					{
						"astId": 22,
						"contract": "contracts/tiyin.sol:Token",
						"label": "blacklisted",
						"offset": 0,
						"slot": "4",
						"type": "t_mapping(t_address,t_bool)"
					},
					{
						"astId": 25,
						"contract": "contracts/tiyin.sol:Token",
						"label": "name",
						"offset": 0,
						"slot": "5",
						"type": "t_string_storage"
					},
					{
						"astId": 28,
						"contract": "contracts/tiyin.sol:Token",
						"label": "symbol",
						"offset": 0,
						"slot": "6",
						"type": "t_string_storage"
					},
					{
						"astId": 31,
						"contract": "contracts/tiyin.sol:Token",
						"label": "decimal",
						"offset": 0,
						"slot": "7",
						"type": "t_uint8"
					}
				],
				"types": {
					"t_address": {
						"encoding": "inplace",
						"label": "address",
						"numberOfBytes": "20"
					},
					"t_bool": {
						"encoding": "inplace",
						"label": "bool",
						"numberOfBytes": "1"
					},
					"t_mapping(t_address,t_bool)": {
						"encoding": "mapping",
						"key": "t_address",
						"label": "mapping(address => bool)",
						"numberOfBytes": "32",
						"value": "t_bool"
					},
					"t_mapping(t_address,t_mapping(t_address,t_uint256))": {
						"encoding": "mapping",
						"key": "t_address",
						"label": "mapping(address => mapping(address => uint256))",
						"numberOfBytes": "32",
						"value": "t_mapping(t_address,t_uint256)"
					},
					"t_mapping(t_address,t_uint256)": {
						"encoding": "mapping",
						"key": "t_address",
						"label": "mapping(address => uint256)",
						"numberOfBytes": "32",
						"value": "t_uint256"
					},
					"t_string_storage": {
						"encoding": "bytes",
						"label": "string",
						"numberOfBytes": "32"
					},
					"t_uint256": {
						"encoding": "inplace",
						"label": "uint256",
						"numberOfBytes": "32"
					},
					"t_uint8": {
						"encoding": "inplace",
						"label": "uint8",
						"numberOfBytes": "1"
					}
				}
			},
			"userdoc": {
				"kind": "user",
				"methods": {},
				"version": 1
			}
		}
	}
}